{
  "_format": "hh-sol-artifact-1",
  "contractName": "ArrayUtils",
  "sourceName": "@1hive/apps-brightid-register/contracts/lib/ArrayUtils.sol",
  "abi": [
    {
      "constant": true,
      "inputs": [],
      "name": "UNVERIFIABLE_ADDRESS",
      "outputs": [
        {
          "name": "",
          "type": "address"
        }
      ],
      "payable": false,
      "stateMutability": "view",
      "type": "function"
    }
  ],
  "bytecode": "0x60f361002f600b82828239805160001a6073146000811461001f57610021565bfe5b5030600052607381538281f30073000000000000000000000000000000000000000030146080604052600436106056576000357c0100000000000000000000000000000000000000000000000000000000900463ffffffff168063d76e1ae214605b575b600080fd5b606160a3565b604051808273ffffffffffffffffffffffffffffffffffffffff1673ffffffffffffffffffffffffffffffffffffffff16815260200191505060405180910390f35b7fffffffffffffffffffffffffffffffffffffffffffffffffffffffffffffffff815600a165627a7a72305820bcc5b917467f982a09b8dc4041a1107a4487ad91f339590c2506f625394627560029",
  "linkReferences": {},
  "deployedLinkReferences": {}
}