{
  "_format": "hh-sol-artifact-1",
  "contractName": "HoneyPotTemplate",
  "sourceName": "contracts/HoneyPotTemplate.sol",
  "abi": [
    {
      "constant": false,
      "inputs": [
        {
          "name": "_arbitrator",
          "type": "address"
        },
        {
          "name": "_setAppFeesCashier",
          "type": "bool"
        },
        {
          "name": "_title",
          "type": "string"
        },
        {
          "name": "_content",
          "type": "bytes"
        },
        {
          "name": "_stakingFactory",
          "type": "address"
        },
        {
          "name": "_feeToken",
          "type": "address"
        },
        {
          "name": "_challengeDuration",
          "type": "uint64"
        },
        {
          "name": "_convictionVotingFees",
          "type": "uint256[2]"
        }
      ],
      "name": "createDaoTxThree",
      "outputs": [],
      "payable": false,
      "stateMutability": "nonpayable",
      "type": "function"
    },
    {
      "constant": false,
      "inputs": [
        {
          "name": "_voteToken",
          "type": "address"
        },
        {
          "name": "_disputableVotingSettings",
          "type": "uint64[7]"
        },
        {
          "name": "_1hiveContext",
          "type": "bytes32"
        },
        {
          "name": "_verifiers",
          "type": "address[]"
        },
        {
          "name": "_brightIdSettings",
          "type": "uint256[3]"
        }
      ],
      "name": "createDaoTxOne",
      "outputs": [],
      "payable": false,
      "stateMutability": "nonpayable",
      "type": "function"
    },
    {
      "constant": false,
      "inputs": [
        {
          "name": "_issuanceSettings",
          "type": "uint256[2]"
        },
        {
          "name": "_stableToken",
          "type": "address"
        },
        {
          "name": "_setupAddresses",
          "type": "address[2]"
        },
        {
          "name": "_convictionSettings",
          "type": "uint64[4]"
        }
      ],
      "name": "createDaoTxTwo",
      "outputs": [],
      "payable": false,
      "stateMutability": "nonpayable",
      "type": "function"
    },
    {
      "inputs": [
        {
          "name": "_daoFactory",
          "type": "address"
        },
        {
          "name": "_ens",
          "type": "address"
        },
        {
          "name": "_miniMeFactory",
          "type": "address"
        },
        {
          "name": "_aragonID",
          "type": "address"
        }
      ],
      "payable": false,
      "stateMutability": "nonpayable",
      "type": "constructor"
    },
    {
      "anonymous": false,
      "inputs": [
        {
          "indexed": false,
          "name": "disputableVoting",
          "type": "address"
        }
      ],
      "name": "DisputableVotingAddress",
      "type": "event"
    },
    {
      "anonymous": false,
      "inputs": [
        {
          "indexed": false,
          "name": "voteToken",
          "type": "address"
        }
      ],
      "name": "VoteToken",
      "type": "event"
    },
    {
      "anonymous": false,
      "inputs": [
        {
          "indexed": false,
          "name": "agentAddress",
          "type": "address"
        }
      ],
      "name": "AgentAddress",
      "type": "event"
    },
    {
      "anonymous": false,
      "inputs": [
        {
          "indexed": false,
          "name": "hookedTokenManagerAddress",
          "type": "address"
        }
      ],
      "name": "HookedTokenManagerAddress",
      "type": "event"
    },
    {
      "anonymous": false,
      "inputs": [
        {
          "indexed": false,
          "name": "convictionVoting",
          "type": "address"
        }
      ],
      "name": "ConvictionVotingAddress",
      "type": "event"
    },
    {
      "anonymous": false,
      "inputs": [
        {
          "indexed": false,
          "name": "brightIdRegister",
          "type": "address"
        }
      ],
      "name": "BrightIdRegisterAddress",
      "type": "event"
    },
    {
      "anonymous": false,
      "inputs": [
        {
          "indexed": false,
          "name": "agreement",
          "type": "address"
        }
      ],
      "name": "AgreementAddress",
      "type": "event"
    },
    {
      "anonymous": false,
      "inputs": [
        {
          "indexed": false,
          "name": "dao",
          "type": "address"
        }
      ],
      "name": "DeployDao",
      "type": "event"
    },
    {
      "anonymous": false,
      "inputs": [
        {
          "indexed": false,
          "name": "dao",
          "type": "address"
        }
      ],
      "name": "SetupDao",
      "type": "event"
    },
    {
      "anonymous": false,
      "inputs": [
        {
          "indexed": false,
          "name": "token",
          "type": "address"
        }
      ],
      "name": "DeployToken",
      "type": "event"
    },
    {
      "anonymous": false,
      "inputs": [
        {
          "indexed": false,
          "name": "appProxy",
          "type": "address"
        },
        {
          "indexed": false,
          "name": "appId",
          "type": "bytes32"
        }
      ],
      "name": "InstalledApp",
      "type": "event"
    }
  ],
  "bytecode": "0x60806040523480156200001157600080fd5b50604051608080620070e18339810180604052810190808051906020019092919080519060200190929190805190602001909291908051906020019092919050505083838383620000718362000396640100000000026401000000009004565b6040805190810160405280601981526020017f54454d504c4154455f454e535f4e4f545f434f4e54524143540000000000000081525090151562000153576040517f08c379a00000000000000000000000000000000000000000000000000000000081526004018080602001828103825283818151815260200191508051906020019080838360005b8381101562000117578082015181840152602081019050620000fa565b50505050905090810190601f168015620001455780820380516001836020036101000a031916815260200191505b509250505060405180910390fd5b506200016e8462000396640100000000026401000000009004565b6040805190810160405280601d81526020017f54454d504c4154455f44414f5f4641435f4e4f545f434f4e545241435400000081525090151562000250576040517f08c379a00000000000000000000000000000000000000000000000000000000081526004018080602001828103825283818151815260200191508051906020019080838360005b8381101562000214578082015181840152602081019050620001f7565b50505050905090810190601f168015620002425780820380516001836020036101000a031916815260200191505b509250505060405180910390fd5b50826000806101000a81548173ffffffffffffffffffffffffffffffffffffffff021916908373ffffffffffffffffffffffffffffffffffffffff16021790555080600360006101000a81548173ffffffffffffffffffffffffffffffffffffffff021916908373ffffffffffffffffffffffffffffffffffffffff16021790555083600160006101000a81548173ffffffffffffffffffffffffffffffffffffffff021916908373ffffffffffffffffffffffffffffffffffffffff16021790555081600260006101000a81548173ffffffffffffffffffffffffffffffffffffffff021916908373ffffffffffffffffffffffffffffffffffffffff160217905550505050506200037281620003ea640100000000026401000000009004565b6200038c82620004ea640100000000026401000000009004565b50505050620005ea565b600080600073ffffffffffffffffffffffffffffffffffffffff168373ffffffffffffffffffffffffffffffffffffffff161415620003d95760009150620003e4565b823b90506000811191505b50919050565b620004048162000396640100000000026401000000009004565b6040805190810160405280601f81526020017f54454d504c4154455f415241474f4e5f49445f4e4f545f434f4e545241435400815250901515620004e6576040517f08c379a00000000000000000000000000000000000000000000000000000000081526004018080602001828103825283818151815260200191508051906020019080838360005b83811015620004aa5780820151818401526020810190506200048d565b50505050905090810190601f168015620004d85780820380516001836020036101000a031916815260200191505b509250505060405180910390fd5b5050565b620005048162000396640100000000026401000000009004565b6040805190810160405280602081526020017f54454d504c4154455f4d494e494d455f4641435f4e4f545f434f4e5452414354815250901515620005e6576040517f08c379a00000000000000000000000000000000000000000000000000000000081526004018080602001828103825283818151815260200191508051906020019080838360005b83811015620005aa5780820151818401526020810190506200058d565b50505050905090810190601f168015620005d85780820380516001836020036101000a031916815260200191505b509250505060405180910390fd5b5050565b616ae780620005fa6000396000f300608060405260043610610057576000357c0100000000000000000000000000000000000000000000000000000000900463ffffffff168063018706871461005c578063307a97f0146101ba57806354d990f9146102ac575b600080fd5b34801561006857600080fd5b506101b8600480360381019080803573ffffffffffffffffffffffffffffffffffffffff169060200190929190803515159060200190929190803590602001908201803590602001908080601f0160208091040260200160405190810160405280939291908181526020018383808284378201915050505050509192919290803590602001908201803590602001908080601f0160208091040260200160405190810160405280939291908181526020018383808284378201915050505050509192919290803573ffffffffffffffffffffffffffffffffffffffff169060200190929190803573ffffffffffffffffffffffffffffffffffffffff169060200190929190803567ffffffffffffffff169060200190929190806040019060028060200260405190810160405280929190826002602002808284378201915050505050919291929050505061037c565b005b3480156101c657600080fd5b506102aa600480360381019080803573ffffffffffffffffffffffffffffffffffffffff1690602001909291908060e001906007806020026040519081016040528092919082600760200280828437820191505050505091929192908035600019169060200190929190803590602001908201803590602001908080602002602001604051908101604052809392919081815260200183836020028082843782019150505050505091929192908060600190600380602002604051908101604052809291908260036020028082843782019150505050509192919290505050610ccc565b005b3480156102b857600080fd5b5061037a6004803603810190808060400190600280602002604051908101604052809291908260026020028082843782019150505050509192919290803573ffffffffffffffffffffffffffffffffffffffff16906020019092919080604001906002806020026040519081016040528092919082600260200280828437820191505050505091929192908060800190600480602002604051908101604052809291908260046020028082843782019150505050509192919290505050610f63565b005b6000806000806000600460003373ffffffffffffffffffffffffffffffffffffffff1673ffffffffffffffffffffffffffffffffffffffff16815260200190815260200160002060040160009054906101000a900473ffffffffffffffffffffffffffffffffffffffff1673ffffffffffffffffffffffffffffffffffffffff16630803fac06040518163ffffffff167c0100000000000000000000000000000000000000000000000000000000028152600401602060405180830381600087803b15801561044a57600080fd5b505af115801561045e573d6000803e3d6000fd5b505050506040513d602081101561047457600080fd5b81019080805190602001909291905050506040805190810160405280600881526020017f4e4f5f4341434845000000000000000000000000000000000000000000000000815250901515610563576040517f08c379a00000000000000000000000000000000000000000000000000000000081526004018080602001828103825283818151815260200191508051906020019080838360005b8381101561052857808201518184015260208101905061050d565b50505050905090810190601f1680156105555780820380516001836020036101000a031916815260200191505b509250505060405180910390fd5b5061056c611446565b50505094509450945061057d611585565b915061058d858e8e8e8e8e6115f4565b905061059b8482858661190f565b8373ffffffffffffffffffffffffffffffffffffffff1663be03847882858673ffffffffffffffffffffffffffffffffffffffff1663d35424fa6040518163ffffffff167c0100000000000000000000000000000000000000000000000000000000028152600401602060405180830381600087803b15801561061d57600080fd5b505af1158015610631573d6000803e3d6000fd5b505050506040513d602081101561064757600080fd5b8101908080519060200190929190505050876040518563ffffffff167c0100000000000000000000000000000000000000000000000000000000028152600401808573ffffffffffffffffffffffffffffffffffffffff1673ffffffffffffffffffffffffffffffffffffffff1681526020018473ffffffffffffffffffffffffffffffffffffffff1673ffffffffffffffffffffffffffffffffffffffff16815260200183600019166000191681526020018273ffffffffffffffffffffffffffffffffffffffff1673ffffffffffffffffffffffffffffffffffffffff168152602001945050505050600060405180830381600087803b15801561074c57600080fd5b505af1158015610760573d6000803e3d6000fd5b505050508373ffffffffffffffffffffffffffffffffffffffff1663be03847882848573ffffffffffffffffffffffffffffffffffffffff1663d35424fa6040518163ffffffff167c0100000000000000000000000000000000000000000000000000000000028152600401602060405180830381600087803b1580156107e657600080fd5b505af11580156107fa573d6000803e3d6000fd5b505050506040513d602081101561081057600080fd5b8101908080519060200190929190505050876040518563ffffffff167c0100000000000000000000000000000000000000000000000000000000028152600401808573ffffffffffffffffffffffffffffffffffffffff1673ffffffffffffffffffffffffffffffffffffffff1681526020018473ffffffffffffffffffffffffffffffffffffffff1673ffffffffffffffffffffffffffffffffffffffff16815260200183600019166000191681526020018273ffffffffffffffffffffffffffffffffffffffff1673ffffffffffffffffffffffffffffffffffffffff168152602001945050505050600060405180830381600087803b15801561091557600080fd5b505af1158015610929573d6000803e3d6000fd5b505050508073ffffffffffffffffffffffffffffffffffffffff16633a999604848a8a8a600060028110151561095b57fe5b60200201518b600160028110151561096f57fe5b60200201516040518663ffffffff167c0100000000000000000000000000000000000000000000000000000000028152600401808673ffffffffffffffffffffffffffffffffffffffff1673ffffffffffffffffffffffffffffffffffffffff1681526020018573ffffffffffffffffffffffffffffffffffffffff1673ffffffffffffffffffffffffffffffffffffffff1681526020018467ffffffffffffffff1667ffffffffffffffff16815260200183815260200182815260200195505050505050600060405180830381600087803b158015610a4e57600080fd5b505af1158015610a62573d6000803e3d6000fd5b505050508073ffffffffffffffffffffffffffffffffffffffff16633a999604838a8a8a6000600281101515610a9457fe5b60200201518b6001600281101515610aa857fe5b60200201516040518663ffffffff167c0100000000000000000000000000000000000000000000000000000000028152600401808673ffffffffffffffffffffffffffffffffffffffff1673ffffffffffffffffffffffffffffffffffffffff1681526020018573ffffffffffffffffffffffffffffffffffffffff1673ffffffffffffffffffffffffffffffffffffffff1681526020018467ffffffffffffffff1667ffffffffffffffff16815260200183815260200182815260200195505050505050600060405180830381600087803b158015610b8757600080fd5b505af1158015610b9b573d6000803e3d6000fd5b50505050610c4884828373ffffffffffffffffffffffffffffffffffffffff16632cfbcf1b6040518163ffffffff167c0100000000000000000000000000000000000000000000000000000000028152600401602060405180830381600087803b158015610c0857600080fd5b505af1158015610c1c573d6000803e3d6000fd5b505050506040513d6020811015610c3257600080fd5b8101908080519060200190929190505050611ca7565b610c528533611e66565b610c5a611e75565b7f5f7f970fffd3dbe3d4eb5b944c76129360d69d579af6a4228f78fc8dc4b3452681604051808273ffffffffffffffffffffffffffffffffffffffff1673ffffffffffffffffffffffffffffffffffffffff16815260200191505060405180910390a150505050505050505050505050565b6000806000806000806000600780146040805190810160405280600c81526020017f4241445f53455454494e47530000000000000000000000000000000000000000815250901515610db9576040517f08c379a00000000000000000000000000000000000000000000000000000000081526004018080602001828103825283818151815260200191508051906020019080838360005b83811015610d7e578082015181840152602081019050610d63565b50505050905090810190601f168015610dab5780820380516001836020036101000a031916815260200191505b509250505060405180910390fd5b50610dc2611ff1565b96509650610dcf8761229f565b94508b9350610ddf87858d612433565b9250610def8787858d8d8d6127a0565b9150610dfb8785612c1d565b9050610e078684612eb2565b610e1386868586613d3e565b610e1e8684856140d6565b610e2c878785888589614511565b7f2f7781c36e9b1334ba79ad25dbd3473a7e7c3a6006d7ac761edc6d61d772f6e583604051808273ffffffffffffffffffffffffffffffffffffffff1673ffffffffffffffffffffffffffffffffffffffff16815260200191505060405180910390a17ff7cf60c1457f1232d59ee11c4869c76d5e791ce20f0660a375825ef777fd05d284604051808273ffffffffffffffffffffffffffffffffffffffff1673ffffffffffffffffffffffffffffffffffffffff16815260200191505060405180910390a17fc49d2fc32ef865665c14e4f94fe5539837ee0cd0c98f39b745c6f083cceac61385604051808273ffffffffffffffffffffffffffffffffffffffff1673ffffffffffffffffffffffffffffffffffffffff16815260200191505060405180910390a1505050505050505050505050565b600080600080600080600080600073ffffffffffffffffffffffffffffffffffffffff16600460003373ffffffffffffffffffffffffffffffffffffffff1673ffffffffffffffffffffffffffffffffffffffff16815260200190815260200160002060000160009054906101000a900473ffffffffffffffffffffffffffffffffffffffff1673ffffffffffffffffffffffffffffffffffffffff1614156040805190810160405280600881526020017f4e4f5f43414348450000000000000000000000000000000000000000000000008152509015156110e0576040517f08c379a00000000000000000000000000000000000000000000000000000000081526004018080602001828103825283818151815260200191508051906020019080838360005b838110156110a557808201518184015260208101905061108a565b50505050905090810190601f1680156110d25780820380516001836020036101000a031916815260200191505b509250505060405180910390fd5b506110e9611446565b9750975097509750975097506111018885878f6146ef565b915061110e878388614932565b61111a87878685614b00565b6111d9888573ffffffffffffffffffffffffffffffffffffffff1663fc0c546a6040518163ffffffff167c0100000000000000000000000000000000000000000000000000000000028152600401602060405180830381600087803b15801561118257600080fd5b505af1158015611196573d6000803e3d6000fd5b505050506040513d60208110156111ac57600080fd5b81019080805190602001909291905050508d8d60006002811015156111cd57fe5b6020020151898e614e98565b90506111fa8782888d60016002811015156111f057fe5b602002015161523a565b61120687868389615b6d565b6112af87858673ffffffffffffffffffffffffffffffffffffffff1663f68e73046040518163ffffffff167c0100000000000000000000000000000000000000000000000000000000028152600401602060405180830381600087803b15801561126f57600080fd5b505af1158015611283573d6000803e3d6000fd5b505050506040513d602081101561129957600080fd5b8101908080519060200190929190505050615d3c565b8373ffffffffffffffffffffffffffffffffffffffff16636354b661826040518263ffffffff167c0100000000000000000000000000000000000000000000000000000000028152600401808273ffffffffffffffffffffffffffffffffffffffff1673ffffffffffffffffffffffffffffffffffffffff168152602001915050602060405180830381600087803b15801561134a57600080fd5b505af115801561135e573d6000803e3d6000fd5b505050506040513d602081101561137457600080fd5b81019080805190602001909291905050505061142f87858673ffffffffffffffffffffffffffffffffffffffff1663f68e73046040518163ffffffff167c0100000000000000000000000000000000000000000000000000000000028152600401602060405180830381600087803b1580156113ef57600080fd5b505af1158015611403573d6000803e3d6000fd5b505050506040513d602081101561141957600080fd5b8101908080519060200190929190505050611ca7565b61143881615e6c565b505050505050505050505050565b6000806000806000806000600460003373ffffffffffffffffffffffffffffffffffffffff1673ffffffffffffffffffffffffffffffffffffffff16815260200190815260200160002090508060000160009054906101000a900473ffffffffffffffffffffffffffffffffffffffff168160010160009054906101000a900473ffffffffffffffffffffffffffffffffffffffff168260020160009054906101000a900473ffffffffffffffffffffffffffffffffffffffff168360030160009054906101000a900473ffffffffffffffffffffffffffffffffffffffff168460040160009054906101000a900473ffffffffffffffffffffffffffffffffffffffff168560060160009054906101000a900473ffffffffffffffffffffffffffffffffffffffff1696509650965096509650965050909192939495565b600080600460003373ffffffffffffffffffffffffffffffffffffffff1673ffffffffffffffffffffffffffffffffffffffff16815260200190815260200160002090508060070160009054906101000a900473ffffffffffffffffffffffffffffffffffffffff1691505090565b60006060600073ffffffffffffffffffffffffffffffffffffffff16632d7b6fba90507c0100000000000000000000000000000000000000000000000000000000028787878787604051602401808673ffffffffffffffffffffffffffffffffffffffff1673ffffffffffffffffffffffffffffffffffffffff1681526020018515151515815260200180602001806020018473ffffffffffffffffffffffffffffffffffffffff1673ffffffffffffffffffffffffffffffffffffffff168152602001838103835286818151815260200191508051906020019080838360005b838110156116f05780820151818401526020810190506116d5565b50505050905090810190601f16801561171d5780820380516001836020036101000a031916815260200191505b50838103825285818151815260200191508051906020019080838360005b8381101561175657808201518184015260208101905061173b565b50505050905090810190601f1680156117835780820380516001836020036101000a031916815260200191505b50975050505050505050604051602081830303815290604052907bffffffffffffffffffffffffffffffffffffffffffffffffffffffff19166020820180517bffffffffffffffffffffffffffffffffffffffffffffffffffffffff838183161783525050505090506119028861182e6040805190810160405280600481526020017f6f70656e00000000000000000000000000000000000000000000000000000000815250615ef6565b60405180807f61677265656d656e740000000000000000000000000000000000000000000000815250600901905060405180910390206040516020018083600019166000191681526020018260001916600019168152602001925050506040516020818303038152906040526040518082805190602001908083835b6020831015156118cf57805182526020820191506020810190506020830392506118aa565b6001836020036101000a03801982511681845116808217855250505050505090500191505060405180910390208361601e565b9150509695505050505050565b8373ffffffffffffffffffffffffffffffffffffffff1663be03847883858673ffffffffffffffffffffffffffffffffffffffff1663cd253d996040518163ffffffff167c0100000000000000000000000000000000000000000000000000000000028152600401602060405180830381600087803b15801561199157600080fd5b505af11580156119a5573d6000803e3d6000fd5b505050506040513d60208110156119bb57600080fd5b8101908080519060200190929190505050856040518563ffffffff167c0100000000000000000000000000000000000000000000000000000000028152600401808573ffffffffffffffffffffffffffffffffffffffff1673ffffffffffffffffffffffffffffffffffffffff1681526020018473ffffffffffffffffffffffffffffffffffffffff1673ffffffffffffffffffffffffffffffffffffffff16815260200183600019166000191681526020018273ffffffffffffffffffffffffffffffffffffffff1673ffffffffffffffffffffffffffffffffffffffff168152602001945050505050600060405180830381600087803b158015611ac057600080fd5b505af1158015611ad4573d6000803e3d6000fd5b505050508373ffffffffffffffffffffffffffffffffffffffff1663be03847830858673ffffffffffffffffffffffffffffffffffffffff16632cfbcf1b6040518163ffffffff167c0100000000000000000000000000000000000000000000000000000000028152600401602060405180830381600087803b158015611b5a57600080fd5b505af1158015611b6e573d6000803e3d6000fd5b505050506040513d6020811015611b8457600080fd5b8101908080519060200190929190505050306040518563ffffffff167c0100000000000000000000000000000000000000000000000000000000028152600401808573ffffffffffffffffffffffffffffffffffffffff1673ffffffffffffffffffffffffffffffffffffffff1681526020018473ffffffffffffffffffffffffffffffffffffffff1673ffffffffffffffffffffffffffffffffffffffff16815260200183600019166000191681526020018273ffffffffffffffffffffffffffffffffffffffff1673ffffffffffffffffffffffffffffffffffffffff168152602001945050505050600060405180830381600087803b158015611c8957600080fd5b505af1158015611c9d573d6000803e3d6000fd5b5050505050505050565b8273ffffffffffffffffffffffffffffffffffffffff16639d0effdb3084846040518463ffffffff167c0100000000000000000000000000000000000000000000000000000000028152600401808473ffffffffffffffffffffffffffffffffffffffff1673ffffffffffffffffffffffffffffffffffffffff1681526020018373ffffffffffffffffffffffffffffffffffffffff1673ffffffffffffffffffffffffffffffffffffffff16815260200182600019166000191681526020019350505050600060405180830381600087803b158015611d8657600080fd5b505af1158015611d9a573d6000803e3d6000fd5b505050508273ffffffffffffffffffffffffffffffffffffffff1663a885508a83836040518363ffffffff167c0100000000000000000000000000000000000000000000000000000000028152600401808373ffffffffffffffffffffffffffffffffffffffff1673ffffffffffffffffffffffffffffffffffffffff168152602001826000191660001916815260200192505050600060405180830381600087803b158015611e4957600080fd5b505af1158015611e5d573d6000803e3d6000fd5b50505050505050565b611e71828283616036565b5050565b600460003373ffffffffffffffffffffffffffffffffffffffff1673ffffffffffffffffffffffffffffffffffffffff168152602001908152602001600020600080820160006101000a81549073ffffffffffffffffffffffffffffffffffffffff02191690556001820160006101000a81549073ffffffffffffffffffffffffffffffffffffffff02191690556002820160006101000a81549073ffffffffffffffffffffffffffffffffffffffff02191690556003820160006101000a81549073ffffffffffffffffffffffffffffffffffffffff02191690556004820160006101000a81549073ffffffffffffffffffffffffffffffffffffffff02191690556005820160006101000a81549073ffffffffffffffffffffffffffffffffffffffff02191690556006820160006101000a81549073ffffffffffffffffffffffffffffffffffffffff02191690556007820160006101000a81549073ffffffffffffffffffffffffffffffffffffffff02191690555050565b600080600160009054906101000a900473ffffffffffffffffffffffffffffffffffffffff1673ffffffffffffffffffffffffffffffffffffffff166321687444306040518263ffffffff167c0100000000000000000000000000000000000000000000000000000000028152600401808273ffffffffffffffffffffffffffffffffffffffff1673ffffffffffffffffffffffffffffffffffffffff168152602001915050602060405180830381600087803b1580156120b157600080fd5b505af11580156120c5573d6000803e3d6000fd5b505050506040513d60208110156120db57600080fd5b810190808051906020019092919050505091507f0b13a9ab90735191cd544fd95ba68d1385144561cbdeb8acb8035de9a86432f582604051808273ffffffffffffffffffffffffffffffffffffffff1673ffffffffffffffffffffffffffffffffffffffff16815260200191505060405180910390a18173ffffffffffffffffffffffffffffffffffffffff1663de2873596040518163ffffffff167c0100000000000000000000000000000000000000000000000000000000028152600401602060405180830381600087803b1580156121b557600080fd5b505af11580156121c9573d6000803e3d6000fd5b505050506040513d60208110156121df57600080fd5b8101908080519060200190929190505050905061229b81838473ffffffffffffffffffffffffffffffffffffffff16638ea8dc9d6040518163ffffffff167c0100000000000000000000000000000000000000000000000000000000028152600401602060405180830381600087803b15801561225b57600080fd5b505af115801561226f573d6000803e3d6000fd5b505050506040513d602081101561228557600080fd5b8101908080519060200190929190505050615d3c565b9091565b6000606060008073ffffffffffffffffffffffffffffffffffffffff16638129fc1c90507c010000000000000000000000000000000000000000000000000000000002604051602401604051602081830303815290604052907bffffffffffffffffffffffffffffffffffffffffffffffffffffffff19166020820180517bffffffffffffffffffffffffffffffffffffffffffffffffffffffff83818316178352505050509150612375847f9ac98dc5f995bf0211ed589ef022719d1487e5cb2bab505676f0d084c07cf89a60010284616298565b90508373ffffffffffffffffffffffffffffffffffffffff16638c61757d7f9ac98dc5f995bf0211ed589ef022719d1487e5cb2bab505676f0d084c07cf89a6001026040518263ffffffff167c0100000000000000000000000000000000000000000000000000000000028152600401808260001916600019168152602001915050600060405180830381600087803b15801561241157600080fd5b505af1158015612425573d6000803e3d6000fd5b505050508092505050919050565b600080600080600080600080606089600060078110151561245057fe5b6020020151975089600160078110151561246657fe5b6020020151965089600260078110151561247c57fe5b6020020151955089600360078110151561249257fe5b602002015194508960046007811015156124a857fe5b602002015193508960056007811015156124be57fe5b602002015192508960066007811015156124d457fe5b60200201519150600073ffffffffffffffffffffffffffffffffffffffff1663acec48f090507c0100000000000000000000000000000000000000000000000000000000028b89898989898989604051602401808973ffffffffffffffffffffffffffffffffffffffff1673ffffffffffffffffffffffffffffffffffffffff1681526020018867ffffffffffffffff1667ffffffffffffffff1681526020018767ffffffffffffffff1667ffffffffffffffff1681526020018667ffffffffffffffff1667ffffffffffffffff1681526020018567ffffffffffffffff1667ffffffffffffffff1681526020018467ffffffffffffffff1667ffffffffffffffff1681526020018367ffffffffffffffff1667ffffffffffffffff1681526020018267ffffffffffffffff1667ffffffffffffffff16815260200198505050505050505050604051602081830303815290604052907bffffffffffffffffffffffffffffffffffffffffffffffffffffffff19166020820180517bffffffffffffffffffffffffffffffffffffffffffffffffffffffff8381831617835250505050905061278f8c6126bb6040805190810160405280600481526020017f6f70656e00000000000000000000000000000000000000000000000000000000815250615ef6565b60405180807f64697370757461626c652d766f74696e67000000000000000000000000000000815250601101905060405180910390206040516020018083600019166000191681526020018260001916600019168152602001925050506040516020818303038152906040526040518082805190602001908083835b60208310151561275c5780518252602082019150602081019050602083039250612737565b6001836020036101000a03801982511681845116808217855250505050505090500191505060405180910390208361601e565b985050505050505050509392505050565b6000806128b8886127e56040805190810160405280600481526020017f6f70656e00000000000000000000000000000000000000000000000000000000815250615ef6565b60405180807f62726967687469642d7265676973746572000000000000000000000000000000815250601101905060405180910390206040516020018083600019166000191681526020018260001916600019168152602001925050506040516020818303038152906040526040518082805190602001908083835b6020831015156128865780518252602082019150602081019050602083039250612861565b6001836020036101000a03801982511681845116808217855250505050505090500191505060405180910390206162b0565b90508073ffffffffffffffffffffffffffffffffffffffff1663f77a43d686868660006003811015156128e757fe5b60200201518760016003811015156128fb57fe5b602002015188600260038110151561290f57fe5b60200201516040518663ffffffff167c010000000000000000000000000000000000000000000000000000000002815260040180866000191660001916815260200180602001858152602001848152602001838152602001828103825286818151815260200191508051906020019060200280838360005b838110156129a2578082015181840152602081019050612987565b505050509050019650505050505050600060405180830381600087803b1580156129cb57600080fd5b505af11580156129df573d6000803e3d6000fd5b505050507f58e349323ea50b83ad4266779132f0366f076674f1247b34c9baff00974a2c7181604051808273ffffffffffffffffffffffffffffffffffffffff1673ffffffffffffffffffffffffffffffffffffffff16815260200191505060405180910390a18673ffffffffffffffffffffffffffffffffffffffff1663be03847887838473ffffffffffffffffffffffffffffffffffffffff16634f629fbb6040518163ffffffff167c0100000000000000000000000000000000000000000000000000000000028152600401602060405180830381600087803b158015612ac857600080fd5b505af1158015612adc573d6000803e3d6000fd5b505050506040513d6020811015612af257600080fd5b81019080805190602001909291905050508a6040518563ffffffff167c0100000000000000000000000000000000000000000000000000000000028152600401808573ffffffffffffffffffffffffffffffffffffffff1673ffffffffffffffffffffffffffffffffffffffff1681526020018473ffffffffffffffffffffffffffffffffffffffff1673ffffffffffffffffffffffffffffffffffffffff16815260200183600019166000191681526020018273ffffffffffffffffffffffffffffffffffffffff1673ffffffffffffffffffffffffffffffffffffffff168152602001945050505050600060405180830381600087803b158015612bf757600080fd5b505af1158015612c0b573d6000803e3d6000fd5b50505050809150509695505050505050565b600080612d5b84612c626040805190810160405280600481526020017f6f70656e00000000000000000000000000000000000000000000000000000000815250615ef6565b60405180807f686f6f6b65642d746f6b656e2d6d616e616765722d6e6f2d636f6e74726f6c6c81526020017f6572000000000000000000000000000000000000000000000000000000000000815250602201905060405180910390206040516020018083600019166000191681526020018260001916600019168152602001925050506040516020818303038152906040526040518082805190602001908083835b602083101515612d295780518252602082019150602081019050602083039250612d04565b6001836020036101000a03801982511681845116808217855250505050505090500191505060405180910390206162f9565b90508073ffffffffffffffffffffffffffffffffffffffff1663e37ff29f8460017fffffffffffffffffffffffffffffffffffffffffffffffffffffffffffffffff6040518463ffffffff167c0100000000000000000000000000000000000000000000000000000000028152600401808473ffffffffffffffffffffffffffffffffffffffff1673ffffffffffffffffffffffffffffffffffffffff168152602001831515151581526020018281526020019350505050600060405180830381600087803b158015612e2d57600080fd5b505af1158015612e41573d6000803e3d6000fd5b505050507f87ffa15431919cb35a758edd0f5d67d4868100db94dfb0cdcf8338a986d3501481604051808273ffffffffffffffffffffffffffffffffffffffff1673ffffffffffffffffffffffffffffffffffffffff16815260200191505060405180910390a18091505092915050565b8173ffffffffffffffffffffffffffffffffffffffff1663be0384787fffffffffffffffffffffffffffffffffffffffffffffffffffffffffffffffff838473ffffffffffffffffffffffffffffffffffffffff16638f911dca6040518163ffffffff167c0100000000000000000000000000000000000000000000000000000000028152600401602060405180830381600087803b158015612f5457600080fd5b505af1158015612f68573d6000803e3d6000fd5b505050506040513d6020811015612f7e57600080fd5b8101908080519060200190929190505050856040518563ffffffff167c0100000000000000000000000000000000000000000000000000000000028152600401808573ffffffffffffffffffffffffffffffffffffffff1673ffffffffffffffffffffffffffffffffffffffff1681526020018473ffffffffffffffffffffffffffffffffffffffff1673ffffffffffffffffffffffffffffffffffffffff16815260200183600019166000191681526020018273ffffffffffffffffffffffffffffffffffffffff1673ffffffffffffffffffffffffffffffffffffffff168152602001945050505050600060405180830381600087803b15801561308357600080fd5b505af1158015613097573d6000803e3d6000fd5b505050508173ffffffffffffffffffffffffffffffffffffffff1663be0384787fffffffffffffffffffffffffffffffffffffffffffffffffffffffffffffffff838473ffffffffffffffffffffffffffffffffffffffff1663be2c64d46040518163ffffffff167c0100000000000000000000000000000000000000000000000000000000028152600401602060405180830381600087803b15801561313d57600080fd5b505af1158015613151573d6000803e3d6000fd5b505050506040513d602081101561316757600080fd5b8101908080519060200190929190505050856040518563ffffffff167c0100000000000000000000000000000000000000000000000000000000028152600401808573ffffffffffffffffffffffffffffffffffffffff1673ffffffffffffffffffffffffffffffffffffffff1681526020018473ffffffffffffffffffffffffffffffffffffffff1673ffffffffffffffffffffffffffffffffffffffff16815260200183600019166000191681526020018273ffffffffffffffffffffffffffffffffffffffff1673ffffffffffffffffffffffffffffffffffffffff168152602001945050505050600060405180830381600087803b15801561326c57600080fd5b505af1158015613280573d6000803e3d6000fd5b505050508173ffffffffffffffffffffffffffffffffffffffff1663be03847882838473ffffffffffffffffffffffffffffffffffffffff166301aab00c6040518163ffffffff167c0100000000000000000000000000000000000000000000000000000000028152600401602060405180830381600087803b15801561330657600080fd5b505af115801561331a573d6000803e3d6000fd5b505050506040513d602081101561333057600080fd5b8101908080519060200190929190505050856040518563ffffffff167c0100000000000000000000000000000000000000000000000000000000028152600401808573ffffffffffffffffffffffffffffffffffffffff1673ffffffffffffffffffffffffffffffffffffffff1681526020018473ffffffffffffffffffffffffffffffffffffffff1673ffffffffffffffffffffffffffffffffffffffff16815260200183600019166000191681526020018273ffffffffffffffffffffffffffffffffffffffff1673ffffffffffffffffffffffffffffffffffffffff168152602001945050505050600060405180830381600087803b15801561343557600080fd5b505af1158015613449573d6000803e3d6000fd5b505050508173ffffffffffffffffffffffffffffffffffffffff1663be03847882838473ffffffffffffffffffffffffffffffffffffffff16636207c9e06040518163ffffffff167c0100000000000000000000000000000000000000000000000000000000028152600401602060405180830381600087803b1580156134cf57600080fd5b505af11580156134e3573d6000803e3d6000fd5b505050506040513d60208110156134f957600080fd5b8101908080519060200190929190505050856040518563ffffffff167c0100000000000000000000000000000000000000000000000000000000028152600401808573ffffffffffffffffffffffffffffffffffffffff1673ffffffffffffffffffffffffffffffffffffffff1681526020018473ffffffffffffffffffffffffffffffffffffffff1673ffffffffffffffffffffffffffffffffffffffff16815260200183600019166000191681526020018273ffffffffffffffffffffffffffffffffffffffff1673ffffffffffffffffffffffffffffffffffffffff168152602001945050505050600060405180830381600087803b1580156135fe57600080fd5b505af1158015613612573d6000803e3d6000fd5b505050508173ffffffffffffffffffffffffffffffffffffffff1663be03847882838473ffffffffffffffffffffffffffffffffffffffff1663979f5b4c6040518163ffffffff167c0100000000000000000000000000000000000000000000000000000000028152600401602060405180830381600087803b15801561369857600080fd5b505af11580156136ac573d6000803e3d6000fd5b505050506040513d60208110156136c257600080fd5b8101908080519060200190929190505050856040518563ffffffff167c0100000000000000000000000000000000000000000000000000000000028152600401808573ffffffffffffffffffffffffffffffffffffffff1673ffffffffffffffffffffffffffffffffffffffff1681526020018473ffffffffffffffffffffffffffffffffffffffff1673ffffffffffffffffffffffffffffffffffffffff16815260200183600019166000191681526020018273ffffffffffffffffffffffffffffffffffffffff1673ffffffffffffffffffffffffffffffffffffffff168152602001945050505050600060405180830381600087803b1580156137c757600080fd5b505af11580156137db573d6000803e3d6000fd5b505050508173ffffffffffffffffffffffffffffffffffffffff1663be03847882838473ffffffffffffffffffffffffffffffffffffffff166376f989426040518163ffffffff167c0100000000000000000000000000000000000000000000000000000000028152600401602060405180830381600087803b15801561386157600080fd5b505af1158015613875573d6000803e3d6000fd5b505050506040513d602081101561388b57600080fd5b8101908080519060200190929190505050856040518563ffffffff167c0100000000000000000000000000000000000000000000000000000000028152600401808573ffffffffffffffffffffffffffffffffffffffff1673ffffffffffffffffffffffffffffffffffffffff1681526020018473ffffffffffffffffffffffffffffffffffffffff1673ffffffffffffffffffffffffffffffffffffffff16815260200183600019166000191681526020018273ffffffffffffffffffffffffffffffffffffffff1673ffffffffffffffffffffffffffffffffffffffff168152602001945050505050600060405180830381600087803b15801561399057600080fd5b505af11580156139a4573d6000803e3d6000fd5b505050508173ffffffffffffffffffffffffffffffffffffffff1663be03847882838473ffffffffffffffffffffffffffffffffffffffff16638a11804e6040518163ffffffff167c0100000000000000000000000000000000000000000000000000000000028152600401602060405180830381600087803b158015613a2a57600080fd5b505af1158015613a3e573d6000803e3d6000fd5b505050506040513d6020811015613a5457600080fd5b8101908080519060200190929190505050856040518563ffffffff167c0100000000000000000000000000000000000000000000000000000000028152600401808573ffffffffffffffffffffffffffffffffffffffff1673ffffffffffffffffffffffffffffffffffffffff1681526020018473ffffffffffffffffffffffffffffffffffffffff1673ffffffffffffffffffffffffffffffffffffffff16815260200183600019166000191681526020018273ffffffffffffffffffffffffffffffffffffffff1673ffffffffffffffffffffffffffffffffffffffff168152602001945050505050600060405180830381600087803b158015613b5957600080fd5b505af1158015613b6d573d6000803e3d6000fd5b505050508173ffffffffffffffffffffffffffffffffffffffff1663be03847882838473ffffffffffffffffffffffffffffffffffffffff166356fefc556040518163ffffffff167c0100000000000000000000000000000000000000000000000000000000028152600401602060405180830381600087803b158015613bf357600080fd5b505af1158015613c07573d6000803e3d6000fd5b505050506040513d6020811015613c1d57600080fd5b8101908080519060200190929190505050856040518563ffffffff167c0100000000000000000000000000000000000000000000000000000000028152600401808573ffffffffffffffffffffffffffffffffffffffff1673ffffffffffffffffffffffffffffffffffffffff1681526020018473ffffffffffffffffffffffffffffffffffffffff1673ffffffffffffffffffffffffffffffffffffffff16815260200183600019166000191681526020018273ffffffffffffffffffffffffffffffffffffffff1673ffffffffffffffffffffffffffffffffffffffff168152602001945050505050600060405180830381600087803b158015613d2257600080fd5b505af1158015613d36573d6000803e3d6000fd5b505050505050565b8373ffffffffffffffffffffffffffffffffffffffff1663be03847883858673ffffffffffffffffffffffffffffffffffffffff16635fa5e4e66040518163ffffffff167c0100000000000000000000000000000000000000000000000000000000028152600401602060405180830381600087803b158015613dc057600080fd5b505af1158015613dd4573d6000803e3d6000fd5b505050506040513d6020811015613dea57600080fd5b8101908080519060200190929190505050856040518563ffffffff167c0100000000000000000000000000000000000000000000000000000000028152600401808573ffffffffffffffffffffffffffffffffffffffff1673ffffffffffffffffffffffffffffffffffffffff1681526020018473ffffffffffffffffffffffffffffffffffffffff1673ffffffffffffffffffffffffffffffffffffffff16815260200183600019166000191681526020018273ffffffffffffffffffffffffffffffffffffffff1673ffffffffffffffffffffffffffffffffffffffff168152602001945050505050600060405180830381600087803b158015613eef57600080fd5b505af1158015613f03573d6000803e3d6000fd5b505050508373ffffffffffffffffffffffffffffffffffffffff1663be03847883858673ffffffffffffffffffffffffffffffffffffffff1663368c3c346040518163ffffffff167c0100000000000000000000000000000000000000000000000000000000028152600401602060405180830381600087803b158015613f8957600080fd5b505af1158015613f9d573d6000803e3d6000fd5b505050506040513d6020811015613fb357600080fd5b8101908080519060200190929190505050856040518563ffffffff167c0100000000000000000000000000000000000000000000000000000000028152600401808573ffffffffffffffffffffffffffffffffffffffff1673ffffffffffffffffffffffffffffffffffffffff1681526020018473ffffffffffffffffffffffffffffffffffffffff1673ffffffffffffffffffffffffffffffffffffffff16815260200183600019166000191681526020018273ffffffffffffffffffffffffffffffffffffffff1673ffffffffffffffffffffffffffffffffffffffff168152602001945050505050600060405180830381600087803b1580156140b857600080fd5b505af11580156140cc573d6000803e3d6000fd5b5050505050505050565b60008373ffffffffffffffffffffffffffffffffffffffff1663a479e5086040518163ffffffff167c0100000000000000000000000000000000000000000000000000000000028152600401602060405180830381600087803b15801561413c57600080fd5b505af1158015614150573d6000803e3d6000fd5b505050506040513d602081101561416657600080fd5b810190808051906020019092919050505090508373ffffffffffffffffffffffffffffffffffffffff1663be03847884838473ffffffffffffffffffffffffffffffffffffffff1663bd8fde1c6040518163ffffffff167c0100000000000000000000000000000000000000000000000000000000028152600401602060405180830381600087803b1580156141fb57600080fd5b505af115801561420f573d6000803e3d6000fd5b505050506040513d602081101561422557600080fd5b8101908080519060200190929190505050866040518563ffffffff167c0100000000000000000000000000000000000000000000000000000000028152600401808573ffffffffffffffffffffffffffffffffffffffff1673ffffffffffffffffffffffffffffffffffffffff1681526020018473ffffffffffffffffffffffffffffffffffffffff1673ffffffffffffffffffffffffffffffffffffffff16815260200183600019166000191681526020018273ffffffffffffffffffffffffffffffffffffffff1673ffffffffffffffffffffffffffffffffffffffff168152602001945050505050600060405180830381600087803b15801561432a57600080fd5b505af115801561433e573d6000803e3d6000fd5b505050508373ffffffffffffffffffffffffffffffffffffffff1663be03847884838473ffffffffffffffffffffffffffffffffffffffff166319f3d10f6040518163ffffffff167c0100000000000000000000000000000000000000000000000000000000028152600401602060405180830381600087803b1580156143c457600080fd5b505af11580156143d8573d6000803e3d6000fd5b505050506040513d60208110156143ee57600080fd5b8101908080519060200190929190505050866040518563ffffffff167c0100000000000000000000000000000000000000000000000000000000028152600401808573ffffffffffffffffffffffffffffffffffffffff1673ffffffffffffffffffffffffffffffffffffffff1681526020018473ffffffffffffffffffffffffffffffffffffffff1673ffffffffffffffffffffffffffffffffffffffff16815260200183600019166000191681526020018273ffffffffffffffffffffffffffffffffffffffff1673ffffffffffffffffffffffffffffffffffffffff168152602001945050505050600060405180830381600087803b1580156144f357600080fd5b505af1158015614507573d6000803e3d6000fd5b5050505050505050565b6000600460003373ffffffffffffffffffffffffffffffffffffffff1673ffffffffffffffffffffffffffffffffffffffff1681526020019081526020016000209050868160000160006101000a81548173ffffffffffffffffffffffffffffffffffffffff021916908373ffffffffffffffffffffffffffffffffffffffff160217905550858160010160006101000a81548173ffffffffffffffffffffffffffffffffffffffff021916908373ffffffffffffffffffffffffffffffffffffffff160217905550848160020160006101000a81548173ffffffffffffffffffffffffffffffffffffffff021916908373ffffffffffffffffffffffffffffffffffffffff160217905550838160030160006101000a81548173ffffffffffffffffffffffffffffffffffffffff021916908373ffffffffffffffffffffffffffffffffffffffff160217905550828160040160006101000a81548173ffffffffffffffffffffffffffffffffffffffff021916908373ffffffffffffffffffffffffffffffffffffffff160217905550818160060160006101000a81548173ffffffffffffffffffffffffffffffffffffffff021916908373ffffffffffffffffffffffffffffffffffffffff16021790555050505050505050565b600080614807866147346040805190810160405280600481526020017f6f70656e00000000000000000000000000000000000000000000000000000000815250615ef6565b60405180807f64796e616d69632d69737375616e636500000000000000000000000000000000815250601001905060405180910390206040516020018083600019166000191681526020018260001916600019168152602001925050506040516020818303038152906040526040518082805190602001908083835b6020831015156147d557805182526020820191506020810190506020830392506147b0565b6001836020036101000a03801982511681845116808217855250505050505090500191505060405180910390206162b0565b90508073ffffffffffffffffffffffffffffffffffffffff1663eb990c59868686600060028110151561483657fe5b602002015187600160028110151561484a57fe5b60200201516040518563ffffffff167c0100000000000000000000000000000000000000000000000000000000028152600401808573ffffffffffffffffffffffffffffffffffffffff1673ffffffffffffffffffffffffffffffffffffffff1681526020018473ffffffffffffffffffffffffffffffffffffffff1673ffffffffffffffffffffffffffffffffffffffff168152602001838152602001828152602001945050505050600060405180830381600087803b15801561490e57600080fd5b505af1158015614922573d6000803e3d6000fd5b5050505080915050949350505050565b8273ffffffffffffffffffffffffffffffffffffffff1663be03847882848573ffffffffffffffffffffffffffffffffffffffff16634f629fbb6040518163ffffffff167c0100000000000000000000000000000000000000000000000000000000028152600401602060405180830381600087803b1580156149b457600080fd5b505af11580156149c8573d6000803e3d6000fd5b505050506040513d60208110156149de57600080fd5b8101908080519060200190929190505050856040518563ffffffff167c0100000000000000000000000000000000000000000000000000000000028152600401808573ffffffffffffffffffffffffffffffffffffffff1673ffffffffffffffffffffffffffffffffffffffff1681526020018473ffffffffffffffffffffffffffffffffffffffff1673ffffffffffffffffffffffffffffffffffffffff16815260200183600019166000191681526020018273ffffffffffffffffffffffffffffffffffffffff1673ffffffffffffffffffffffffffffffffffffffff168152602001945050505050600060405180830381600087803b158015614ae357600080fd5b505af1158015614af7573d6000803e3d6000fd5b50505050505050565b8373ffffffffffffffffffffffffffffffffffffffff1663be03847882848573ffffffffffffffffffffffffffffffffffffffff1663e9a9c8506040518163ffffffff167c0100000000000000000000000000000000000000000000000000000000028152600401602060405180830381600087803b158015614b8257600080fd5b505af1158015614b96573d6000803e3d6000fd5b505050506040513d6020811015614bac57600080fd5b8101908080519060200190929190505050876040518563ffffffff167c0100000000000000000000000000000000000000000000000000000000028152600401808573ffffffffffffffffffffffffffffffffffffffff1673ffffffffffffffffffffffffffffffffffffffff1681526020018473ffffffffffffffffffffffffffffffffffffffff1673ffffffffffffffffffffffffffffffffffffffff16815260200183600019166000191681526020018273ffffffffffffffffffffffffffffffffffffffff1673ffffffffffffffffffffffffffffffffffffffff168152602001945050505050600060405180830381600087803b158015614cb157600080fd5b505af1158015614cc5573d6000803e3d6000fd5b505050508373ffffffffffffffffffffffffffffffffffffffff1663be03847882848573ffffffffffffffffffffffffffffffffffffffff1663b930908f6040518163ffffffff167c0100000000000000000000000000000000000000000000000000000000028152600401602060405180830381600087803b158015614d4b57600080fd5b505af1158015614d5f573d6000803e3d6000fd5b505050506040513d6020811015614d7557600080fd5b8101908080519060200190929190505050876040518563ffffffff167c0100000000000000000000000000000000000000000000000000000000028152600401808573ffffffffffffffffffffffffffffffffffffffff1673ffffffffffffffffffffffffffffffffffffffff1681526020018473ffffffffffffffffffffffffffffffffffffffff1673ffffffffffffffffffffffffffffffffffffffff16815260200183600019166000191681526020018273ffffffffffffffffffffffffffffffffffffffff1673ffffffffffffffffffffffffffffffffffffffff168152602001945050505050600060405180830381600087803b158015614e7a57600080fd5b505af1158015614e8e573d6000803e3d6000fd5b5050505050505050565b600080614fb088614edd6040805190810160405280600481526020017f6f70656e00000000000000000000000000000000000000000000000000000000815250615ef6565b60405180807f64697370757461626c652d636f6e76696374696f6e2d766f74696e6700000000815250601c01905060405180910390206040516020018083600019166000191681526020018260001916600019168152602001925050506040516020818303038152906040526040518082805190602001908083835b602083101515614f7e5780518252602082019150602081019050602083039250614f59565b6001836020036101000a03801982511681845116808217855250505050505090500191505060405180910390206162b0565b90508073ffffffffffffffffffffffffffffffffffffffff16636322b5138889898989896000600481101515614fe257fe5b60200201518a6001600481101515614ff657fe5b60200201518b600260048110151561500a57fe5b60200201518c600360048110151561501e57fe5b60200201516040518a63ffffffff167c0100000000000000000000000000000000000000000000000000000000028152600401808a73ffffffffffffffffffffffffffffffffffffffff1673ffffffffffffffffffffffffffffffffffffffff1681526020018973ffffffffffffffffffffffffffffffffffffffff1673ffffffffffffffffffffffffffffffffffffffff1681526020018873ffffffffffffffffffffffffffffffffffffffff1673ffffffffffffffffffffffffffffffffffffffff1681526020018773ffffffffffffffffffffffffffffffffffffffff1673ffffffffffffffffffffffffffffffffffffffff1681526020018673ffffffffffffffffffffffffffffffffffffffff1673ffffffffffffffffffffffffffffffffffffffff1681526020018567ffffffffffffffff1681526020018467ffffffffffffffff1681526020018367ffffffffffffffff1681526020018267ffffffffffffffff1681526020019950505050505050505050600060405180830381600087803b1580156151b157600080fd5b505af11580156151c5573d6000803e3d6000fd5b505050507f1321f297c6ab67c841f14b71659ec3563fec930eac9e94fb9ec48c34544b595181604051808273ffffffffffffffffffffffffffffffffffffffff1673ffffffffffffffffffffffffffffffffffffffff16815260200191505060405180910390a1809150509695505050505050565b8373ffffffffffffffffffffffffffffffffffffffff1663be0384787fffffffffffffffffffffffffffffffffffffffffffffffffffffffffffffffff858673ffffffffffffffffffffffffffffffffffffffff16638f911dca6040518163ffffffff167c0100000000000000000000000000000000000000000000000000000000028152600401602060405180830381600087803b1580156152dc57600080fd5b505af11580156152f0573d6000803e3d6000fd5b505050506040513d602081101561530657600080fd5b8101908080519060200190929190505050866040518563ffffffff167c0100000000000000000000000000000000000000000000000000000000028152600401808573ffffffffffffffffffffffffffffffffffffffff1673ffffffffffffffffffffffffffffffffffffffff1681526020018473ffffffffffffffffffffffffffffffffffffffff1673ffffffffffffffffffffffffffffffffffffffff16815260200183600019166000191681526020018273ffffffffffffffffffffffffffffffffffffffff1673ffffffffffffffffffffffffffffffffffffffff168152602001945050505050600060405180830381600087803b15801561540b57600080fd5b505af115801561541f573d6000803e3d6000fd5b505050508373ffffffffffffffffffffffffffffffffffffffff1663be0384787fffffffffffffffffffffffffffffffffffffffffffffffffffffffffffffffff858673ffffffffffffffffffffffffffffffffffffffff1663eeabf67e6040518163ffffffff167c0100000000000000000000000000000000000000000000000000000000028152600401602060405180830381600087803b1580156154c557600080fd5b505af11580156154d9573d6000803e3d6000fd5b505050506040513d60208110156154ef57600080fd5b8101908080519060200190929190505050866040518563ffffffff167c0100000000000000000000000000000000000000000000000000000000028152600401808573ffffffffffffffffffffffffffffffffffffffff1673ffffffffffffffffffffffffffffffffffffffff1681526020018473ffffffffffffffffffffffffffffffffffffffff1673ffffffffffffffffffffffffffffffffffffffff16815260200183600019166000191681526020018273ffffffffffffffffffffffffffffffffffffffff1673ffffffffffffffffffffffffffffffffffffffff168152602001945050505050600060405180830381600087803b1580156155f457600080fd5b505af1158015615608573d6000803e3d6000fd5b505050508373ffffffffffffffffffffffffffffffffffffffff1663be03847882858673ffffffffffffffffffffffffffffffffffffffff1663dcdf8e396040518163ffffffff167c0100000000000000000000000000000000000000000000000000000000028152600401602060405180830381600087803b15801561568e57600080fd5b505af11580156156a2573d6000803e3d6000fd5b505050506040513d60208110156156b857600080fd5b8101908080519060200190929190505050866040518563ffffffff167c0100000000000000000000000000000000000000000000000000000000028152600401808573ffffffffffffffffffffffffffffffffffffffff1673ffffffffffffffffffffffffffffffffffffffff1681526020018473ffffffffffffffffffffffffffffffffffffffff1673ffffffffffffffffffffffffffffffffffffffff16815260200183600019166000191681526020018273ffffffffffffffffffffffffffffffffffffffff1673ffffffffffffffffffffffffffffffffffffffff168152602001945050505050600060405180830381600087803b1580156157bd57600080fd5b505af11580156157d1573d6000803e3d6000fd5b505050508373ffffffffffffffffffffffffffffffffffffffff1663be03847883858673ffffffffffffffffffffffffffffffffffffffff1663f31bbd7f6040518163ffffffff167c0100000000000000000000000000000000000000000000000000000000028152600401602060405180830381600087803b15801561585757600080fd5b505af115801561586b573d6000803e3d6000fd5b505050506040513d602081101561588157600080fd5b8101908080519060200190929190505050866040518563ffffffff167c0100000000000000000000000000000000000000000000000000000000028152600401808573ffffffffffffffffffffffffffffffffffffffff1673ffffffffffffffffffffffffffffffffffffffff1681526020018473ffffffffffffffffffffffffffffffffffffffff1673ffffffffffffffffffffffffffffffffffffffff16815260200183600019166000191681526020018273ffffffffffffffffffffffffffffffffffffffff1673ffffffffffffffffffffffffffffffffffffffff168152602001945050505050600060405180830381600087803b15801561598657600080fd5b505af115801561599a573d6000803e3d6000fd5b505050508373ffffffffffffffffffffffffffffffffffffffff1663be03847883858673ffffffffffffffffffffffffffffffffffffffff16634f629fbb6040518163ffffffff167c0100000000000000000000000000000000000000000000000000000000028152600401602060405180830381600087803b158015615a2057600080fd5b505af1158015615a34573d6000803e3d6000fd5b505050506040513d6020811015615a4a57600080fd5b8101908080519060200190929190505050866040518563ffffffff167c0100000000000000000000000000000000000000000000000000000000028152600401808573ffffffffffffffffffffffffffffffffffffffff1673ffffffffffffffffffffffffffffffffffffffff1681526020018473ffffffffffffffffffffffffffffffffffffffff1673ffffffffffffffffffffffffffffffffffffffff16815260200183600019166000191681526020018273ffffffffffffffffffffffffffffffffffffffff1673ffffffffffffffffffffffffffffffffffffffff168152602001945050505050600060405180830381600087803b158015615b4f57600080fd5b505af1158015615b63573d6000803e3d6000fd5b5050505050505050565b8373ffffffffffffffffffffffffffffffffffffffff1663be03847883858673ffffffffffffffffffffffffffffffffffffffff1663206b60f96040518163ffffffff167c0100000000000000000000000000000000000000000000000000000000028152600401602060405180830381600087803b158015615bef57600080fd5b505af1158015615c03573d6000803e3d6000fd5b505050506040513d6020811015615c1957600080fd5b8101908080519060200190929190505050856040518563ffffffff167c0100000000000000000000000000000000000000000000000000000000028152600401808573ffffffffffffffffffffffffffffffffffffffff1673ffffffffffffffffffffffffffffffffffffffff1681526020018473ffffffffffffffffffffffffffffffffffffffff1673ffffffffffffffffffffffffffffffffffffffff16815260200183600019166000191681526020018273ffffffffffffffffffffffffffffffffffffffff1673ffffffffffffffffffffffffffffffffffffffff168152602001945050505050600060405180830381600087803b158015615d1e57600080fd5b505af1158015615d32573d6000803e3d6000fd5b5050505050505050565b8273ffffffffffffffffffffffffffffffffffffffff1663be038478308484306040518563ffffffff167c0100000000000000000000000000000000000000000000000000000000028152600401808573ffffffffffffffffffffffffffffffffffffffff1673ffffffffffffffffffffffffffffffffffffffff1681526020018473ffffffffffffffffffffffffffffffffffffffff1673ffffffffffffffffffffffffffffffffffffffff16815260200183600019166000191681526020018273ffffffffffffffffffffffffffffffffffffffff1673ffffffffffffffffffffffffffffffffffffffff168152602001945050505050600060405180830381600087803b158015615e4f57600080fd5b505af1158015615e63573d6000803e3d6000fd5b50505050505050565b6000600460003373ffffffffffffffffffffffffffffffffffffffff1673ffffffffffffffffffffffffffffffffffffffff1681526020019081526020016000209050818160070160006101000a81548173ffffffffffffffffffffffffffffffffffffffff021916908373ffffffffffffffffffffffffffffffffffffffff1602179055505050565b60007f9065c3e7f7b7ef1ef4e53d2d0b8e0cef02874ab020c1ece79d5f0d3d0111c0ba600102826040518082805190602001908083835b602083101515615f525780518252602082019150602081019050602083039250615f2d565b6001836020036101000a03801982511681845116808217855250505050505090500191505060405180910390206040516020018083600019166000191681526020018260001916600019168152602001925050506040516020818303038152906040526040518082805190602001908083835b602083101515615fea5780518252602082019150602081019050602083039250615fc5565b6001836020036101000a03801982511681845116808217855250505050505090500191505060405180910390209050919050565b600061602d8484846000616342565b90509392505050565b60008373ffffffffffffffffffffffffffffffffffffffff1663de2873596040518163ffffffff167c0100000000000000000000000000000000000000000000000000000000028152600401602060405180830381600087803b15801561609c57600080fd5b505af11580156160b0573d6000803e3d6000fd5b505050506040513d60208110156160c657600080fd5b810190808051906020019092919050505090506161848185858773ffffffffffffffffffffffffffffffffffffffff16638ea8dc9d6040518163ffffffff167c0100000000000000000000000000000000000000000000000000000000028152600401602060405180830381600087803b15801561614357600080fd5b505af1158015616157573d6000803e3d6000fd5b505050506040513d602081101561616d57600080fd5b810190808051906020019092919050505086616533565b61622f8182858473ffffffffffffffffffffffffffffffffffffffff16633d6ab68f6040518163ffffffff167c0100000000000000000000000000000000000000000000000000000000028152600401602060405180830381600087803b1580156161ee57600080fd5b505af1158015616202573d6000803e3d6000fd5b505050506040513d602081101561621857600080fd5b810190808051906020019092919050505086616533565b7f17592627a66846ce06d92a1708275bc653b2a3f34aec855584b819872a8ba41384604051808273ffffffffffffffffffffffffffffffffffffffff1673ffffffffffffffffffffffffffffffffffffffff16815260200191505060405180910390a150505050565b60006162a78484846001616342565b90509392505050565b60006162f1838360006040519080825280601f01601f1916602001820160405280156162eb5781602001602082028038833980820191505090505b5061601e565b905092915050565b600061633a838360006040519080825280601f01601f1916602001820160405280156163345781602001602082028038833980820191505090505b50616298565b905092915050565b60008060006163508661681f565b91508673ffffffffffffffffffffffffffffffffffffffff1663397edd41878488886040518563ffffffff167c01000000000000000000000000000000000000000000000000000000000281526004018085600019166000191681526020018473ffffffffffffffffffffffffffffffffffffffff1673ffffffffffffffffffffffffffffffffffffffff1681526020018060200183151515158152602001828103825284818151815260200191508051906020019080838360005b8381101561642757808201518184015260208101905061640c565b50505050905090810190601f1680156164545780820380516001836020036101000a031916815260200191505b5095505050505050602060405180830381600087803b15801561647657600080fd5b505af115801561648a573d6000803e3d6000fd5b505050506040513d60208110156164a057600080fd5b810190808051906020019092919050505090507f2b183a501d4b1bbd30e6611ebac40ab18a00390e6c6bed324bf92a265c9ce6e38187604051808373ffffffffffffffffffffffffffffffffffffffff1673ffffffffffffffffffffffffffffffffffffffff16815260200182600019166000191681526020019250505060405180910390a18092505050949350505050565b8473ffffffffffffffffffffffffffffffffffffffff16630a8ed3db8486856040518463ffffffff167c0100000000000000000000000000000000000000000000000000000000028152600401808473ffffffffffffffffffffffffffffffffffffffff1673ffffffffffffffffffffffffffffffffffffffff1681526020018373ffffffffffffffffffffffffffffffffffffffff1673ffffffffffffffffffffffffffffffffffffffff16815260200182600019166000191681526020019350505050600060405180830381600087803b15801561661257600080fd5b505af1158015616626573d6000803e3d6000fd5b505050508473ffffffffffffffffffffffffffffffffffffffff16639d0effdb3086856040518463ffffffff167c0100000000000000000000000000000000000000000000000000000000028152600401808473ffffffffffffffffffffffffffffffffffffffff1673ffffffffffffffffffffffffffffffffffffffff1681526020018373ffffffffffffffffffffffffffffffffffffffff1673ffffffffffffffffffffffffffffffffffffffff16815260200182600019166000191681526020019350505050600060405180830381600087803b15801561670957600080fd5b505af115801561671d573d6000803e3d6000fd5b505050508473ffffffffffffffffffffffffffffffffffffffff1663afd925df8286856040518463ffffffff167c0100000000000000000000000000000000000000000000000000000000028152600401808473ffffffffffffffffffffffffffffffffffffffff1673ffffffffffffffffffffffffffffffffffffffff1681526020018373ffffffffffffffffffffffffffffffffffffffff1673ffffffffffffffffffffffffffffffffffffffff16815260200182600019166000191681526020019350505050600060405180830381600087803b15801561680057600080fd5b505af1158015616814573d6000803e3d6000fd5b505050505050505050565b6000806000809054906101000a900473ffffffffffffffffffffffffffffffffffffffff1673ffffffffffffffffffffffffffffffffffffffff16630178b8bf846040518263ffffffff167c0100000000000000000000000000000000000000000000000000000000028152600401808260001916600019168152602001915050602060405180830381600087803b1580156168ba57600080fd5b505af11580156168ce573d6000803e3d6000fd5b505050506040513d60208110156168e457600080fd5b810190808051906020019092919050505073ffffffffffffffffffffffffffffffffffffffff16633b3b57de846040518263ffffffff167c0100000000000000000000000000000000000000000000000000000000028152600401808260001916600019168152602001915050602060405180830381600087803b15801561696b57600080fd5b505af115801561697f573d6000803e3d6000fd5b505050506040513d602081101561699557600080fd5b810190808051906020019092919050505090508073ffffffffffffffffffffffffffffffffffffffff1663c36af4606040518163ffffffff167c0100000000000000000000000000000000000000000000000000000000028152600401600060405180830381600087803b158015616a0c57600080fd5b505af1158015616a20573d6000803e3d6000fd5b505050506040513d6000823e3d601f19601f8201168201806040525060a0811015616a4a57600080fd5b81019080919082606001805190602001909291908051640100000000811115616a7257600080fd5b82810190506020810184811115616a8857600080fd5b8151856001820283011164010000000082111715616aa557600080fd5b50509291905050509091505080925050509190505600a165627a7a7230582037b1f5657099958e9ae67d5340e160db5069cc1d6886b3da56582fb9e77db6dc0029",
  "linkReferences": {},
  "deployedLinkReferences": {}
}