{
  "_format": "hh-sol-artifact-1",
  "contractName": "BrightIdRegister",
  "sourceName": "@1hive/apps-brightid-register/contracts/BrightIdRegister.sol",
  "abi": [
    {
      "constant": false,
      "inputs": [
        {
          "name": "_addrs",
          "type": "address[]"
        },
        {
          "name": "_timestamps",
          "type": "uint256[]"
        },
        {
          "name": "_v",
          "type": "uint8[]"
        },
        {
          "name": "_r",
          "type": "bytes32[]"
        },
        {
          "name": "_s",
          "type": "bytes32[]"
        },
        {
          "name": "_registerAndCall",
          "type": "address"
        },
        {
          "name": "_functionCallData",
          "type": "bytes"
        }
      ],
      "name": "register",
      "outputs": [],
      "payable": false,
      "stateMutability": "nonpayable",
      "type": "function"
    },
    {
      "constant": true,
      "inputs": [],
      "name": "hasInitialized",
      "outputs": [
        {
          "name": "",
          "type": "bool"
        }
      ],
      "payable": false,
      "stateMutability": "view",
      "type": "function"
    },
    {
      "constant": true,
      "inputs": [
        {
          "name": "",
          "type": "address"
        }
      ],
      "name": "userRegistrations",
      "outputs": [
        {
          "name": "uniqueUserId",
          "type": "address"
        },
        {
          "name": "registerTime",
          "type": "uint256"
        },
        {
          "name": "addressVoid",
          "type": "bool"
        }
      ],
      "payable": false,
      "stateMutability": "view",
      "type": "function"
    },
    {
      "constant": true,
      "inputs": [],
      "name": "requiredVerifications",
      "outputs": [
        {
          "name": "",
          "type": "uint256"
        }
      ],
      "payable": false,
      "stateMutability": "view",
      "type": "function"
    },
    {
      "constant": true,
      "inputs": [
        {
          "name": "_script",
          "type": "bytes"
        }
      ],
      "name": "getEVMScriptExecutor",
      "outputs": [
        {
          "name": "",
          "type": "address"
        }
      ],
      "payable": false,
      "stateMutability": "view",
      "type": "function"
    },
    {
      "constant": true,
      "inputs": [],
      "name": "getRecoveryVault",
      "outputs": [
        {
          "name": "",
          "type": "address"
        }
      ],
      "payable": false,
      "stateMutability": "view",
      "type": "function"
    },
    {
      "constant": false,
      "inputs": [
        {
          "name": "_verificationTimestampVariance",
          "type": "uint256"
        }
      ],
      "name": "setVerificationTimestampVariance",
      "outputs": [],
      "payable": false,
      "stateMutability": "nonpayable",
      "type": "function"
    },
    {
      "constant": true,
      "inputs": [],
      "name": "brightIdContext",
      "outputs": [
        {
          "name": "",
          "type": "bytes32"
        }
      ],
      "payable": false,
      "stateMutability": "view",
      "type": "function"
    },
    {
      "constant": true,
      "inputs": [],
      "name": "UPDATE_SETTINGS_ROLE",
      "outputs": [
        {
          "name": "",
          "type": "bytes32"
        }
      ],
      "payable": false,
      "stateMutability": "view",
      "type": "function"
    },
    {
      "constant": true,
      "inputs": [
        {
          "name": "_brightIdUser",
          "type": "address"
        }
      ],
      "name": "hasUniqueUserId",
      "outputs": [
        {
          "name": "",
          "type": "bool"
        }
      ],
      "payable": false,
      "stateMutability": "view",
      "type": "function"
    },
    {
      "constant": true,
      "inputs": [
        {
          "name": "",
          "type": "uint256"
        }
      ],
      "name": "brightIdVerifiers",
      "outputs": [
        {
          "name": "",
          "type": "address"
        }
      ],
      "payable": false,
      "stateMutability": "view",
      "type": "function"
    },
    {
      "constant": true,
      "inputs": [],
      "name": "MAX_BRIGHTID_VERIFIERS",
      "outputs": [
        {
          "name": "",
          "type": "uint256"
        }
      ],
      "payable": false,
      "stateMutability": "view",
      "type": "function"
    },
    {
      "constant": false,
      "inputs": [
        {
          "name": "_registrationPeriod",
          "type": "uint256"
        }
      ],
      "name": "setRegistrationPeriod",
      "outputs": [],
      "payable": false,
      "stateMutability": "nonpayable",
      "type": "function"
    },
    {
      "constant": true,
      "inputs": [],
      "name": "registrationPeriod",
      "outputs": [
        {
          "name": "",
          "type": "uint256"
        }
      ],
      "payable": false,
      "stateMutability": "view",
      "type": "function"
    },
    {
      "constant": true,
      "inputs": [],
      "name": "getBrightIdVerifiers",
      "outputs": [
        {
          "name": "",
          "type": "address[]"
        }
      ],
      "payable": false,
      "stateMutability": "view",
      "type": "function"
    },
    {
      "constant": true,
      "inputs": [
        {
          "name": "token",
          "type": "address"
        }
      ],
      "name": "allowRecoverability",
      "outputs": [
        {
          "name": "",
          "type": "bool"
        }
      ],
      "payable": false,
      "stateMutability": "view",
      "type": "function"
    },
    {
      "constant": true,
      "inputs": [],
      "name": "appId",
      "outputs": [
        {
          "name": "",
          "type": "bytes32"
        }
      ],
      "payable": false,
      "stateMutability": "view",
      "type": "function"
    },
    {
      "constant": true,
      "inputs": [],
      "name": "getInitializationBlock",
      "outputs": [
        {
          "name": "",
          "type": "uint256"
        }
      ],
      "payable": false,
      "stateMutability": "view",
      "type": "function"
    },
    {
      "constant": false,
      "inputs": [
        {
          "name": "_token",
          "type": "address"
        }
      ],
      "name": "transferToVault",
      "outputs": [],
      "payable": false,
      "stateMutability": "nonpayable",
      "type": "function"
    },
    {
      "constant": true,
      "inputs": [
        {
          "name": "_sender",
          "type": "address"
        },
        {
          "name": "_role",
          "type": "bytes32"
        },
        {
          "name": "_params",
          "type": "uint256[]"
        }
      ],
      "name": "canPerform",
      "outputs": [
        {
          "name": "",
          "type": "bool"
        }
      ],
      "payable": false,
      "stateMutability": "view",
      "type": "function"
    },
    {
      "constant": true,
      "inputs": [],
      "name": "getEVMScriptRegistry",
      "outputs": [
        {
          "name": "",
          "type": "address"
        }
      ],
      "payable": false,
      "stateMutability": "view",
      "type": "function"
    },
    {
      "constant": true,
      "inputs": [
        {
          "name": "_brightIdUser",
          "type": "address"
        }
      ],
      "name": "isVerified",
      "outputs": [
        {
          "name": "",
          "type": "bool"
        }
      ],
      "payable": false,
      "stateMutability": "view",
      "type": "function"
    },
    {
      "constant": true,
      "inputs": [
        {
          "name": "_brightIdUser",
          "type": "address"
        }
      ],
      "name": "uniqueUserId",
      "outputs": [
        {
          "name": "",
          "type": "address"
        }
      ],
      "payable": false,
      "stateMutability": "view",
      "type": "function"
    },
    {
      "constant": true,
      "inputs": [],
      "name": "kernel",
      "outputs": [
        {
          "name": "",
          "type": "address"
        }
      ],
      "payable": false,
      "stateMutability": "view",
      "type": "function"
    },
    {
      "constant": true,
      "inputs": [],
      "name": "isPetrified",
      "outputs": [
        {
          "name": "",
          "type": "bool"
        }
      ],
      "payable": false,
      "stateMutability": "view",
      "type": "function"
    },
    {
      "constant": false,
      "inputs": [
        {
          "name": "_brightIdVerifiers",
          "type": "address[]"
        },
        {
          "name": "_requiredVerifications",
          "type": "uint256"
        }
      ],
      "name": "setBrightIdVerifiers",
      "outputs": [],
      "payable": false,
      "stateMutability": "nonpayable",
      "type": "function"
    },
    {
      "constant": true,
      "inputs": [],
      "name": "verificationTimestampVariance",
      "outputs": [
        {
          "name": "",
          "type": "uint256"
        }
      ],
      "payable": false,
      "stateMutability": "view",
      "type": "function"
    },
    {
      "constant": true,
      "inputs": [],
      "name": "MIN_BRIGHTID_VERIFIERS",
      "outputs": [
        {
          "name": "",
          "type": "uint256"
        }
      ],
      "payable": false,
      "stateMutability": "view",
      "type": "function"
    },
    {
      "constant": false,
      "inputs": [
        {
          "name": "_brightIdContext",
          "type": "bytes32"
        },
        {
          "name": "_brightIdVerifiers",
          "type": "address[]"
        },
        {
          "name": "_requiredVerifications",
          "type": "uint256"
        },
        {
          "name": "_registrationPeriod",
          "type": "uint256"
        },
        {
          "name": "_verificationTimestampVariance",
          "type": "uint256"
        }
      ],
      "name": "initialize",
      "outputs": [],
      "payable": false,
      "stateMutability": "nonpayable",
      "type": "function"
    },
    {
      "anonymous": false,
      "inputs": [
        {
          "indexed": false,
          "name": "sender",
          "type": "address"
        }
      ],
      "name": "Register",
      "type": "event"
    },
    {
      "anonymous": false,
      "inputs": [
        {
          "indexed": true,
          "name": "executor",
          "type": "address"
        },
        {
          "indexed": false,
          "name": "script",
          "type": "bytes"
        },
        {
          "indexed": false,
          "name": "input",
          "type": "bytes"
        },
        {
          "indexed": false,
          "name": "returnData",
          "type": "bytes"
        }
      ],
      "name": "ScriptResult",
      "type": "event"
    },
    {
      "anonymous": false,
      "inputs": [
        {
          "indexed": true,
          "name": "vault",
          "type": "address"
        },
        {
          "indexed": true,
          "name": "token",
          "type": "address"
        },
        {
          "indexed": false,
          "name": "amount",
          "type": "uint256"
        }
      ],
      "name": "RecoverToVault",
      "type": "event"
    }
  ],
  "bytecode": "0x60806040526200001d62000023640100000000026401000000009004565b62000309565b60006200003e6200015e640100000000026401000000009004565b146040805190810160405280601881526020017f494e49545f414c52454144595f494e495449414c495a4544000000000000000081525090151562000121576040517f08c379a00000000000000000000000000000000000000000000000000000000081526004018080602001828103825283818151815260200191508051906020019080838360005b83811015620000e5578082015181840152602081019050620000c8565b50505050905090810190601f168015620001135780820380516001836020036101000a031916815260200191505b509250505060405180910390fd5b506200015c7fffffffffffffffffffffffffffffffffffffffffffffffffffffffffffffffff620001ab640100000000026401000000009004565b565b6000620001a67febb05b386a8d34882b8711d156f463690983dc47815980fb82aeeff1aa43579e60010260001916620002f764010000000002620030e5176401000000009004565b905090565b6000620001c66200015e640100000000026401000000009004565b146040805190810160405280601881526020017f494e49545f414c52454144595f494e495449414c495a45440000000000000000815250901515620002a9576040517f08c379a00000000000000000000000000000000000000000000000000000000081526004018080602001828103825283818151815260200191508051906020019080838360005b838110156200026d57808201518184015260208101905062000250565b50505050905090810190601f1680156200029b5780820380516001836020036101000a031916815260200191505b509250505060405180910390fd5b50620002f4817febb05b386a8d34882b8711d156f463690983dc47815980fb82aeeff1aa43579e60010260001916620003026401000000000262003c84179091906401000000009004565b50565b600081549050919050565b8082555050565b613d8480620003196000396000f300608060405260043610610175576000357c0100000000000000000000000000000000000000000000000000000000900463ffffffff1680630311709d1461017a5780630803fac014610352578063099837b7146103815780630e1b8db4146104165780632914b9bd1461044157806332f0a3b5146104ea5780633eeca6f5146105415780634c251adc1461056e5780634f629fbb146105a157806351e11fd5146105d45780635573ad581461062f57806356026f0a1461069c57806356922758146106c75780635939ee04146106f45780637a7dcb931461071f5780637e7db6e11461078b57806380afdea8146107e65780638b3dd749146108195780639d4941d814610844578063a1658fad14610887578063a479e50814610933578063b9209e331461098a578063ca6f0007146109e5578063d4aae0c414610a68578063de4796ed14610abf578063e6bd1c6414610aee578063ea7c7bb814610b33578063ecfff1f714610b5e578063f77a43d614610b89575b600080fd5b34801561018657600080fd5b506103506004803603810190808035906020019082018035906020019080806020026020016040519081016040528093929190818152602001838360200280828437820191505050505050919291929080359060200190820180359060200190808060200260200160405190810160405280939291908181526020018383602002808284378201915050505050509192919290803590602001908201803590602001908080602002602001604051908101604052809392919081815260200183836020028082843782019150505050505091929192908035906020019082018035906020019080806020026020016040519081016040528093929190818152602001838360200280828437820191505050505050919291929080359060200190820180359060200190808060200260200160405190810160405280939291908181526020018383602002808284378201915050505050509192919290803573ffffffffffffffffffffffffffffffffffffffff169060200190929190803590602001908201803590602001908080601f0160208091040260200160405190810160405280939291908181526020018383808284378201915050505050509192919290505050610c1b565b005b34801561035e57600080fd5b506103676112b5565b604051808215151515815260200191505060405180910390f35b34801561038d57600080fd5b506103c2600480360381019080803573ffffffffffffffffffffffffffffffffffffffff1690602001909291905050506112e0565b604051808473ffffffffffffffffffffffffffffffffffffffff1673ffffffffffffffffffffffffffffffffffffffff16815260200183815260200182151515158152602001935050505060405180910390f35b34801561042257600080fd5b5061042b611337565b6040518082815260200191505060405180910390f35b34801561044d57600080fd5b506104a8600480360381019080803590602001908201803590602001908080601f016020809104026020016040519081016040528093929190818152602001838380828437820191505050505050919291929050505061133d565b604051808273ffffffffffffffffffffffffffffffffffffffff1673ffffffffffffffffffffffffffffffffffffffff16815260200191505060405180910390f35b3480156104f657600080fd5b506104ff61145c565b604051808273ffffffffffffffffffffffffffffffffffffffff1673ffffffffffffffffffffffffffffffffffffffff16815260200191505060405180910390f35b34801561054d57600080fd5b5061056c60048036038101908080359060200190929190505050611509565b005b34801561057a57600080fd5b50610583611664565b60405180826000191660001916815260200191505060405180910390f35b3480156105ad57600080fd5b506105b661166a565b60405180826000191660001916815260200191505060405180910390f35b3480156105e057600080fd5b50610615600480360381019080803573ffffffffffffffffffffffffffffffffffffffff1690602001909291905050506116a3565b604051808215151515815260200191505060405180910390f35b34801561063b57600080fd5b5061065a60048036038101908080359060200190929190505050611744565b604051808273ffffffffffffffffffffffffffffffffffffffff1673ffffffffffffffffffffffffffffffffffffffff16815260200191505060405180910390f35b3480156106a857600080fd5b506106b1611782565b6040518082815260200191505060405180910390f35b3480156106d357600080fd5b506106f260048036038101908080359060200190929190505050611787565b005b34801561070057600080fd5b506107096118e4565b6040518082815260200191505060405180910390f35b34801561072b57600080fd5b506107346118ea565b6040518080602001828103825283818151815260200191508051906020019060200280838360005b8381101561077757808201518184015260208101905061075c565b505050509050019250505060405180910390f35b34801561079757600080fd5b506107cc600480360381019080803573ffffffffffffffffffffffffffffffffffffffff169060200190929190505050611978565b604051808215151515815260200191505060405180910390f35b3480156107f257600080fd5b506107fb611983565b60405180826000191660001916815260200191505060405180910390f35b34801561082557600080fd5b5061082e6119ba565b6040518082815260200191505060405180910390f35b34801561085057600080fd5b50610885600480360381019080803573ffffffffffffffffffffffffffffffffffffffff1690602001909291905050506119f1565b005b34801561089357600080fd5b50610919600480360381019080803573ffffffffffffffffffffffffffffffffffffffff169060200190929190803560001916906020019092919080359060200190820180359060200190808060200260200160405190810160405280939291908181526020018383602002808284378201915050505050509192919290505050611e0f565b604051808215151515815260200191505060405180910390f35b34801561093f57600080fd5b5061094861200b565b604051808273ffffffffffffffffffffffffffffffffffffffff1673ffffffffffffffffffffffffffffffffffffffff16815260200191505060405180910390f35b34801561099657600080fd5b506109cb600480360381019080803573ffffffffffffffffffffffffffffffffffffffff169060200190929190505050612126565b604051808215151515815260200191505060405180910390f35b3480156109f157600080fd5b50610a26600480360381019080803573ffffffffffffffffffffffffffffffffffffffff16906020019092919050505061221d565b604051808273ffffffffffffffffffffffffffffffffffffffff1673ffffffffffffffffffffffffffffffffffffffff16815260200191505060405180910390f35b348015610a7457600080fd5b50610a7d6123c2565b604051808273ffffffffffffffffffffffffffffffffffffffff1673ffffffffffffffffffffffffffffffffffffffff16815260200191505060405180910390f35b348015610acb57600080fd5b50610ad46123f9565b604051808215151515815260200191505060405180910390f35b348015610afa57600080fd5b50610b316004803603810190808035906020019082018035906020019190919293919293908035906020019092919050505061242a565b005b348015610b3f57600080fd5b50610b486125b9565b6040518082815260200191505060405180910390f35b348015610b6a57600080fd5b50610b736125bf565b6040518082815260200191505060405180910390f35b348015610b9557600080fd5b50610c196004803603810190808035600019169060200190929190803590602001908201803590602001908080602002602001604051908101604052809392919081815260200183836020028082843782019150505050505091929192908035906020019092919080359060200190929190803590602001909291905050506125c4565b005b600080600560003373ffffffffffffffffffffffffffffffffffffffff1673ffffffffffffffffffffffffffffffffffffffff1681526020019081526020016000209150886000815181101515610c6e57fe5b9060200190602002015173ffffffffffffffffffffffffffffffffffffffff163373ffffffffffffffffffffffffffffffffffffffff1614606060405190810160405280602381526020017f42524947485449445f53454e4445525f4e4f545f494e5f56455249464943415481526020017f494f4e0000000000000000000000000000000000000000000000000000000000815250901515610dab576040517f08c379a00000000000000000000000000000000000000000000000000000000081526004018080602001828103825283818151815260200191508051906020019080838360005b83811015610d70578082015181840152602081019050610d55565b50505050905090810190601f168015610d9d5780820380516001836020036101000a031916815260200191505b509250505060405180910390fd5b50610db989898989896126e2565b8160020160009054906101000a900460ff16156040805190810160405280601781526020017f42524947485449445f414444524553535f564f49444544000000000000000000815250901515610eaa576040517f08c379a00000000000000000000000000000000000000000000000000000000081526004018080602001828103825283818151815260200191508051906020019080838360005b83811015610e6f578082015181840152602081019050610e54565b50505050905090810190601f168015610e9c5780820380516001836020036101000a031916815260200191505b509250505060405180910390fd5b50610eb3612ea2565b82600101819055508860018a5103815181101515610ecd57fe5b906020019060200201519050600073ffffffffffffffffffffffffffffffffffffffff168260000160009054906101000a900473ffffffffffffffffffffffffffffffffffffffff1673ffffffffffffffffffffffffffffffffffffffff161415610f7f57808260000160006101000a81548173ffffffffffffffffffffffffffffffffffffffff021916908373ffffffffffffffffffffffffffffffffffffffff160217905550610f7e89612eaa565b5b600073ffffffffffffffffffffffffffffffffffffffff16600560008373ffffffffffffffffffffffffffffffffffffffff1673ffffffffffffffffffffffffffffffffffffffff16815260200190815260200160002060000160009054906101000a900473ffffffffffffffffffffffffffffffffffffffff1673ffffffffffffffffffffffffffffffffffffffff1614156110985780600560008373ffffffffffffffffffffffffffffffffffffffff1673ffffffffffffffffffffffffffffffffffffffff16815260200190815260200160002060000160006101000a81548173ffffffffffffffffffffffffffffffffffffffff021916908373ffffffffffffffffffffffffffffffffffffffff1602179055505b600073ffffffffffffffffffffffffffffffffffffffff168473ffffffffffffffffffffffffffffffffffffffff16141515611247578373ffffffffffffffffffffffffffffffffffffffff1663870e73c2338460000160009054906101000a900473ffffffffffffffffffffffffffffffffffffffff16866040518463ffffffff167c0100000000000000000000000000000000000000000000000000000000028152600401808473ffffffffffffffffffffffffffffffffffffffff1673ffffffffffffffffffffffffffffffffffffffff1681526020018373ffffffffffffffffffffffffffffffffffffffff1673ffffffffffffffffffffffffffffffffffffffff16815260200180602001828103825283818151815260200191508051906020019080838360005b838110156111e05780820151818401526020810190506111c5565b50505050905090810190601f16801561120d5780820380516001836020036101000a031916815260200191505b50945050505050600060405180830381600087803b15801561122e57600080fd5b505af1158015611242573d6000803e3d6000fd5b505050505b7feeda149c76076b34d4b9d8896c2f7efc0d33d1c7b53ea3c5db490d64613f603a33604051808273ffffffffffffffffffffffffffffffffffffffff1673ffffffffffffffffffffffffffffffffffffffff16815260200191505060405180910390a1505050505050505050565b6000806112c06119ba565b9050600081141580156112da5750806112d7612fbe565b10155b91505090565b60056020528060005260406000206000915090508060000160009054906101000a900473ffffffffffffffffffffffffffffffffffffffff16908060010154908060020160009054906101000a900460ff16905083565b60025481565b600061134761200b565b73ffffffffffffffffffffffffffffffffffffffff166304bf2a7f836040518263ffffffff167c01000000000000000000000000000000000000000000000000000000000281526004018080602001828103825283818151815260200191508051906020019080838360005b838110156113ce5780820151818401526020810190506113b3565b50505050905090810190601f1680156113fb5780820380516001836020036101000a031916815260200191505b5092505050602060405180830381600087803b15801561141a57600080fd5b505af115801561142e573d6000803e3d6000fd5b505050506040513d602081101561144457600080fd5b81019080805190602001909291905050509050919050565b60006114666123c2565b73ffffffffffffffffffffffffffffffffffffffff166332f0a3b56040518163ffffffff167c0100000000000000000000000000000000000000000000000000000000028152600401602060405180830381600087803b1580156114c957600080fd5b505af11580156114dd573d6000803e3d6000fd5b505050506040513d60208110156114f357600080fd5b8101908080519060200190929190505050905090565b60405180807f5550444154455f53455454494e47535f524f4c450000000000000000000000008152506014019050604051809103902061157a338260006040519080825280602002602001820160405280156115745781602001602082028038833980820191505090505b50611e0f565b6040805190810160405280600f81526020017f4150505f415554485f4641494c45440000000000000000000000000000000000815250901515611658576040517f08c379a00000000000000000000000000000000000000000000000000000000081526004018080602001828103825283818151815260200191508051906020019080838360005b8381101561161d578082015181840152602081019050611602565b50505050905090810190601f16801561164a5780820380516001836020036101000a031916815260200191505b509250505060405180910390fd5b50816004819055505050565b60005481565b60405180807f5550444154455f53455454494e47535f524f4c450000000000000000000000008152506014019050604051809103902081565b600080600560008473ffffffffffffffffffffffffffffffffffffffff1673ffffffffffffffffffffffffffffffffffffffff1681526020019081526020016000209050600073ffffffffffffffffffffffffffffffffffffffff168160000160009054906101000a900473ffffffffffffffffffffffffffffffffffffffff1673ffffffffffffffffffffffffffffffffffffffff161415915050919050565b60018181548110151561175357fe5b906000526020600020016000915054906101000a900473ffffffffffffffffffffffffffffffffffffffff1681565b601481565b60405180807f5550444154455f53455454494e47535f524f4c45000000000000000000000000815250601401905060405180910390206117f8338260006040519080825280602002602001820160405280156117f25781602001602082028038833980820191505090505b50611e0f565b6040805190810160405280600f81526020017f4150505f415554485f4641494c454400000000000000000000000000000000008152509015156118d6576040517f08c379a00000000000000000000000000000000000000000000000000000000081526004018080602001828103825283818151815260200191508051906020019080838360005b8381101561189b578082015181840152602081019050611880565b50505050905090810190601f1680156118c85780820380516001836020036101000a031916815260200191505b509250505060405180910390fd5b506118e082612fc6565b5050565b60035481565b6060600180548060200260200160405190810160405280929190818152602001828054801561196e57602002820191906000526020600020905b8160009054906101000a900473ffffffffffffffffffffffffffffffffffffffff1673ffffffffffffffffffffffffffffffffffffffff1681526020019060010190808311611924575b5050505050905090565b600060019050919050565b60006119b57fd625496217aa6a3453eecb9c3489dc5a53e6c67b444329ea2b2cbc9ff547639b600102600019166130da565b905090565b60006119ec7febb05b386a8d34882b8711d156f463690983dc47815980fb82aeeff1aa43579e600102600019166130e5565b905090565b60008060006119ff84611978565b6040805190810160405280601281526020017f5245434f5645525f444953414c4c4f5745440000000000000000000000000000815250901515611add576040517f08c379a00000000000000000000000000000000000000000000000000000000081526004018080602001828103825283818151815260200191508051906020019080838360005b83811015611aa2578082015181840152602081019050611a87565b50505050905090810190601f168015611acf5780820380516001836020036101000a031916815260200191505b509250505060405180910390fd5b50611ae661145c565b9250611af1836130f0565b6040805190810160405280601a81526020017f5245434f5645525f5641554c545f4e4f545f434f4e5452414354000000000000815250901515611bcf576040517f08c379a00000000000000000000000000000000000000000000000000000000081526004018080602001828103825283818151815260200191508051906020019080838360005b83811015611b94578082015181840152602081019050611b79565b50505050905090810190601f168015611bc15780820380516001836020036101000a031916815260200191505b509250505060405180910390fd5b50600073ffffffffffffffffffffffffffffffffffffffff168473ffffffffffffffffffffffffffffffffffffffff161415611c6b573073ffffffffffffffffffffffffffffffffffffffff163191508273ffffffffffffffffffffffffffffffffffffffff166108fc839081150290604051600060405180830381858888f19350505050158015611c65573d6000803e3d6000fd5b50611da4565b839050611c97308273ffffffffffffffffffffffffffffffffffffffff1661314290919063ffffffff16565b9150611cc483838373ffffffffffffffffffffffffffffffffffffffff1661331c9092919063ffffffff16565b6040805190810160405280601d81526020017f5245434f5645525f544f4b454e5f5452414e534645525f4641494c4544000000815250901515611da2576040517f08c379a00000000000000000000000000000000000000000000000000000000081526004018080602001828103825283818151815260200191508051906020019080838360005b83811015611d67578082015181840152602081019050611d4c565b50505050905090810190601f168015611d945780820380516001836020036101000a031916815260200191505b509250505060405180910390fd5b505b8373ffffffffffffffffffffffffffffffffffffffff168373ffffffffffffffffffffffffffffffffffffffff167f596caf56044b55fb8c4ca640089bbc2b63cae3e978b851f5745cbb7c5b288e02846040518082815260200191505060405180910390a350505050565b600080611e1a6112b5565b1515611e295760009150612003565b611e316123c2565b9050600073ffffffffffffffffffffffffffffffffffffffff168173ffffffffffffffffffffffffffffffffffffffff161415611e715760009150612003565b8073ffffffffffffffffffffffffffffffffffffffff1663fdef9106863087611e99886133fc565b6040518563ffffffff167c0100000000000000000000000000000000000000000000000000000000028152600401808573ffffffffffffffffffffffffffffffffffffffff1673ffffffffffffffffffffffffffffffffffffffff1681526020018473ffffffffffffffffffffffffffffffffffffffff1673ffffffffffffffffffffffffffffffffffffffff168152602001836000191660001916815260200180602001828103825283818151815260200191508051906020019080838360005b83811015611f76578082015181840152602081019050611f5b565b50505050905090810190601f168015611fa35780820380516001836020036101000a031916815260200191505b5095505050505050602060405180830381600087803b158015611fc557600080fd5b505af1158015611fd9573d6000803e3d6000fd5b505050506040513d6020811015611fef57600080fd5b810190808051906020019092919050505091505b509392505050565b6000806120166123c2565b73ffffffffffffffffffffffffffffffffffffffff1663be00bbd87fd6f028ca0e8edb4a8c9757ca4fdccab25fa1e0317da1188108f7d2dee14902fb6001027fddbcfd564f642ab5627cf68b9b7d374fb4f8a36e941a75d89c87998cef03bd616001026040518363ffffffff167c0100000000000000000000000000000000000000000000000000000000028152600401808360001916600019168152602001826000191660001916815260200192505050602060405180830381600087803b1580156120e257600080fd5b505af11580156120f6573d6000803e3d6000fd5b505050506040513d602081101561210c57600080fd5b810190808051906020019092919050505090508091505090565b6000806000806000600560008773ffffffffffffffffffffffffffffffffffffffff1673ffffffffffffffffffffffffffffffffffffffff1681526020019081526020016000209350600073ffffffffffffffffffffffffffffffffffffffff168460000160009054906101000a900473ffffffffffffffffffffffffffffffffffffffff1673ffffffffffffffffffffffffffffffffffffffff16141592506121df600354856001015461341390919063ffffffff16565b6121e7612ea2565b1091508360020160009054906101000a900460ff161590508280156122095750815b80156122125750805b945050505050919050565b600080600560008473ffffffffffffffffffffffffffffffffffffffff1673ffffffffffffffffffffffffffffffffffffffff1681526020019081526020016000209050600073ffffffffffffffffffffffffffffffffffffffff168160000160009054906101000a900473ffffffffffffffffffffffffffffffffffffffff1673ffffffffffffffffffffffffffffffffffffffff1614156040805190810160405280601e81526020017f42524947485449445f4e4f5f554e495155455f49445f41535349474e45440000815250901515612394576040517f08c379a00000000000000000000000000000000000000000000000000000000081526004018080602001828103825283818151815260200191508051906020019080838360005b8381101561235957808201518184015260208101905061233e565b50505050905090810190601f1680156123865780820380516001836020036101000a031916815260200191505b509250505060405180910390fd5b508060000160009054906101000a900473ffffffffffffffffffffffffffffffffffffffff16915050919050565b60006123f47f4172f0f7d2289153072b0a6ca36959e0cbe2efc3afe50fc81636caa96338137b60010260001916613508565b905090565b60007fffffffffffffffffffffffffffffffffffffffffffffffffffffffffffffffff6124246119ba565b14905090565b60405180807f5550444154455f53455454494e47535f524f4c450000000000000000000000008152506014019050604051809103902061249b338260006040519080825280602002602001820160405280156124955781602001602082028038833980820191505090505b50611e0f565b6040805190810160405280600f81526020017f4150505f415554485f4641494c45440000000000000000000000000000000000815250901515612579576040517f08c379a00000000000000000000000000000000000000000000000000000000081526004018080602001828103825283818151815260200191508051906020019080838360005b8381101561253e578082015181840152602081019050612523565b50505050905090810190601f16801561256b5780820380516001836020036101000a031916815260200191505b509250505060405180910390fd5b506125b384848080602002602001604051908101604052809392919081815260200183836020028082843782019150505050505083613513565b50505050565b60045481565b600181565b60006125ce6119ba565b146040805190810160405280601881526020017f494e49545f414c52454144595f494e495449414c495a454400000000000000008152509015156126ad576040517f08c379a00000000000000000000000000000000000000000000000000000000081526004018080602001828103825283818151815260200191508051906020019080838360005b83811015612672578082015181840152602081019050612657565b50505050905090810190601f16801561269f5780820380516001836020036101000a031916815260200191505b509250505060405180910390fd5b506126b88484613513565b6126c182612fc6565b8460008160001916905550806004819055506126db6138ee565b5050505050565b606060008060008060006002548a5110156040805190810160405280601d81526020017f42524947485449445f494e434f52524543545f54494d455354414d50530000008152509015156127d1576040517f08c379a00000000000000000000000000000000000000000000000000000000081526004018080602001828103825283818151815260200191508051906020019080838360005b8381101561279657808201518184015260208101905061277b565b50505050905090810190601f1680156127c35780820380516001836020036101000a031916815260200191505b509250505060405180910390fd5b506002548951101580156127e85750600254885110155b80156127f75750600254875110155b6040805190810160405280601d81526020017f42524947485449445f494e434f52524543545f5349474e4154555245530000008152509015156128d5576040517f08c379a00000000000000000000000000000000000000000000000000000000081526004018080602001828103825283818151815260200191508051906020019080838360005b8381101561289a57808201518184015260208101905061287f565b50505050905090810190601f1680156128c75780820380516001836020036101000a031916815260200191505b509250505060405180910390fd5b5088518a511480156128e8575086518851145b80156128f5575086518951145b606060405190810160405280602581526020017f42524947485449445f5349474e4154555245535f444946464552454e545f4c4581526020017f4e475448530000000000000000000000000000000000000000000000000000008152509015156129fa576040517f08c379a00000000000000000000000000000000000000000000000000000000081526004018080602001828103825283818151815260200191508051906020019080838360005b838110156129bf5780820151818401526020810190506129a4565b50505050905090810190601f1680156129ec5780820380516001836020036101000a031916815260200191505b509250505060405180910390fd5b506001805480602002602001604051908101604052809291908181526020018280548015612a7d57602002820191906000526020600020905b8160009054906101000a900473ffffffffffffffffffffffffffffffffffffffff1673ffffffffffffffffffffffffffffffffffffffff1681526020019060010190808311612a33575b5050505050955060009450600093505b60018054905085108015612aa2575060025484105b15612db1576000548b8b87815181101515612ab957fe5b90602001906020020151604051602001808460001916600019168152602001838051906020019060200280838360005b83811015612b04578082015181840152602081019050612ae9565b5050505090500182815260200193505050506040516020818303038152906040526040518082805190602001908083835b602083101515612b5a5780518252602082019150602081019050602083039250612b35565b6001836020036101000a038019825116818451168082178552505050505050905001915050604051809103902092506001838a87815181101515612b9a57fe5b906020019060200201518a88815181101515612bb257fe5b906020019060200201518a89815181101515612bca57fe5b90602001906020020151604051600081526020016040526040518085600019166000191681526020018460ff1660ff1681526020018360001916600019168152602001826000191660001916815260200194505050505060206040516020810390808403906000865af1158015612c45573d6000803e3d6000fd5b505050602060405103519150612c7d6004548b87815181101515612c6557fe5b9060200190602002015161341390919063ffffffff16565b612c85612ea2565b109050808015612ca45750612ca38287613a1b90919063ffffffff16565b5b15612da457612cbc8287613a9990919063ffffffff16565b6040805190810160405280602081526020017f42524947485449445f43414e5f4e4f545f44454c4554455f5645524946494552815250901515612d9a576040517f08c379a00000000000000000000000000000000000000000000000000000000081526004018080602001828103825283818151815260200191508051906020019080838360005b83811015612d5f578082015181840152602081019050612d44565b50505050905090810190601f168015612d8c5780820380516001836020036101000a031916815260200191505b509250505060405180910390fd5b5083806001019450505b8480600101955050612a8d565b60025484146040805190810160405280601581526020017f42524947485449445f4e4f545f56455249464945440000000000000000000000815250901515612e94576040517f08c379a00000000000000000000000000000000000000000000000000000000081526004018080602001828103825283818151815260200191508051906020019080838360005b83811015612e59578082015181840152602081019050612e3e565b50505050905090810190601f168015612e865780820380516001836020036101000a031916815260200191505b509250505060405180910390fd5b505050505050505050505050565b600042905090565b600060018251111515612ebc57612fba565b600190505b815181108015612f355750600560008383815181101515612ede57fe5b9060200190602002015173ffffffffffffffffffffffffffffffffffffffff1673ffffffffffffffffffffffffffffffffffffffff16815260200190815260200160002060020160009054906101000a900460ff16155b15612fb9576001600560008484815181101515612f4e57fe5b9060200190602002015173ffffffffffffffffffffffffffffffffffffffff1673ffffffffffffffffffffffffffffffffffffffff16815260200190815260200160002060020160006101000a81548160ff0219169083151502179055508080600101915050612ec1565b5b5050565b600043905090565b60008111606060405190810160405280602181526020017f42524947485449445f524547495354524154494f4e5f504552494f445f5a455281526020017f4f000000000000000000000000000000000000000000000000000000000000008152509015156130cf576040517f08c379a00000000000000000000000000000000000000000000000000000000081526004018080602001828103825283818151815260200191508051906020019080838360005b83811015613094578082015181840152602081019050613079565b50505050905090810190601f1680156130c15780820380516001836020036101000a031916815260200191505b509250505060405180910390fd5b508060038190555050565b600081549050919050565b600081549050919050565b600080600073ffffffffffffffffffffffffffffffffffffffff168373ffffffffffffffffffffffffffffffffffffffff161415613131576000915061313c565b823b90506000811191505b50919050565b600060606000808573ffffffffffffffffffffffffffffffffffffffff166370a0823190507c01000000000000000000000000000000000000000000000000000000000285604051602401808273ffffffffffffffffffffffffffffffffffffffff1673ffffffffffffffffffffffffffffffffffffffff168152602001915050604051602081830303815290604052907bffffffffffffffffffffffffffffffffffffffffffffffffffffffff19166020820180517bffffffffffffffffffffffffffffffffffffffffffffffffffffffff8381831617835250505050925061322c8684613bfd565b91509150816040805190810160405280601c81526020017f534146455f4552435f32305f42414c414e43455f52455645525445440000000081525090151561330f576040517f08c379a00000000000000000000000000000000000000000000000000000000081526004018080602001828103825283818151815260200191508051906020019080838360005b838110156132d45780820151818401526020810190506132b9565b50505050905090810190601f1680156133015780820380516001836020036101000a031916815260200191505b509250505060405180910390fd5b5080935050505092915050565b6000606063a9059cbb7c0100000000000000000000000000000000000000000000000000000000028484604051602401808373ffffffffffffffffffffffffffffffffffffffff1673ffffffffffffffffffffffffffffffffffffffff16815260200182815260200192505050604051602081830303815290604052907bffffffffffffffffffffffffffffffffffffffffffffffffffffffff19166020820180517bffffffffffffffffffffffffffffffffffffffffffffffffffffffff838183161783525050505090506133f28582613c32565b9150509392505050565b606060006020835102905082915080825250919050565b6000808284019050838110156040805190810160405280601181526020017f4d4154485f4144445f4f564552464c4f570000000000000000000000000000008152509015156134fd576040517f08c379a00000000000000000000000000000000000000000000000000000000081526004018080602001828103825283818151815260200191508051906020019080838360005b838110156134c25780820151818401526020810190506134a7565b50505050905090810190601f1680156134ef5780820380516001836020036101000a031916815260200191505b509250505060405180910390fd5b508091505092915050565b600081549050919050565b6001825110156040805190810160405280601581526020017f42524947485449445f4e4f5f56455249464945525300000000000000000000008152509015156135f7576040517f08c379a00000000000000000000000000000000000000000000000000000000081526004018080602001828103825283818151815260200191508051906020019080838360005b838110156135bc5780820151818401526020810190506135a1565b50505050905090810190601f1680156135e95780820380516001836020036101000a031916815260200191505b509250505060405180910390fd5b506014825111156040805190810160405280601b81526020017f42524947485449445f544f4f5f4d414e595f56455249464945525300000000008152509015156136dc576040517f08c379a00000000000000000000000000000000000000000000000000000000081526004018080602001828103825283818151815260200191508051906020019080838360005b838110156136a1578082015181840152602081019050613686565b50505050905090810190601f1680156136ce5780820380516001836020036101000a031916815260200191505b509250505060405180910390fd5b506001811015606060405190810160405280602181526020017f42524947485449445f4e4f545f454e4f5547485f564552494649434154494f4e81526020017f53000000000000000000000000000000000000000000000000000000000000008152509015156137e7576040517f08c379a00000000000000000000000000000000000000000000000000000000081526004018080602001828103825283818151815260200191508051906020019080838360005b838110156137ac578082015181840152602081019050613791565b50505050905090810190601f1680156137d95780820380516001836020036101000a031916815260200191505b509250505060405180910390fd5b5081518111156040805190810160405280601f81526020017f42524947485449445f544f4f5f4d414e595f564552494649434154494f4e53008152509015156138cb576040517f08c379a00000000000000000000000000000000000000000000000000000000081526004018080602001828103825283818151815260200191508051906020019080838360005b83811015613890578082015181840152602081019050613875565b50505050905090810190601f1680156138bd5780820380516001836020036101000a031916815260200191505b509250505060405180910390fd5b5081600190805190602001906138e2929190613c8b565b50806002819055505050565b60006138f86119ba565b146040805190810160405280601881526020017f494e49545f414c52454144595f494e495449414c495a454400000000000000008152509015156139d7576040517f08c379a00000000000000000000000000000000000000000000000000000000081526004018080602001828103825283818151815260200191508051906020019080838360005b8381101561399c578082015181840152602081019050613981565b50505050905090810190601f1680156139c95780820380516001836020036101000a031916815260200191505b509250505060405180910390fd5b50613a196139e3612fbe565b7febb05b386a8d34882b8711d156f463690983dc47815980fb82aeeff1aa43579e60010260001916613c8490919063ffffffff16565b565b600080600090505b8351811015613a8d578273ffffffffffffffffffffffffffffffffffffffff168482815181101515613a5157fe5b9060200190602002015173ffffffffffffffffffffffffffffffffffffffff161415613a805760019150613a92565b8080600101915050613a23565b600091505b5092915050565b60008060008085519250600091505b82821015613bef578473ffffffffffffffffffffffffffffffffffffffff168683815181101515613ad557fe5b9060200190602002015173ffffffffffffffffffffffffffffffffffffffff161415613be257600186510390508082141515613b6e578581815181101515613b1957fe5b906020019060200201518683815181101515613b3157fe5b9060200190602002019073ffffffffffffffffffffffffffffffffffffffff16908173ffffffffffffffffffffffffffffffffffffffff16815250505b7fffffffffffffffffffffffffffffffffffffffffffffffffffffffffffffffff8682815181101515613b9d57fe5b9060200190602002019073ffffffffffffffffffffffffffffffffffffffff16908173ffffffffffffffffffffffffffffffffffffffff168152505060019350613bf4565b8180600101925050613aa8565b600093505b50505092915050565b6000806000806040516020818751602089018a5afa92506000831115613c2257805191505b5081819350935050509250929050565b6000806040516020818551602087016000895af16000811115613c78573d60008114613c655760208114613c6e57613c76565b60019350613c76565b600183511493505b505b50508091505092915050565b8082555050565b828054828255906000526020600020908101928215613d04579160200282015b82811115613d035782518260006101000a81548173ffffffffffffffffffffffffffffffffffffffff021916908373ffffffffffffffffffffffffffffffffffffffff16021790555091602001919060010190613cab565b5b509050613d119190613d15565b5090565b613d5591905b80821115613d5157600081816101000a81549073ffffffffffffffffffffffffffffffffffffffff021916905550600101613d1b565b5090565b905600a165627a7a72305820387f20fe0c65acfb388178439e2e19268815ba35f40d2473a41f843cfe1844700029",
  "linkReferences": {},
  "deployedLinkReferences": {}
}